{
  "contractName": "Gashapon",
  "abi": [
    {
      "inputs": [
        {
          "internalType": "string",
          "name": "_tokenName",
          "type": "string"
        },
        {
          "internalType": "string",
          "name": "_tokenSymbol",
          "type": "string"
        },
        {
          "internalType": "uint8",
          "name": "_minimumDifficultyBits",
          "type": "uint8"
        },
        {
          "internalType": "uint8",
          "name": "_dnaBitLength",
          "type": "uint8"
        },
        {
          "internalType": "uint256",
          "name": "_initialPrice",
          "type": "uint256"
        },
        {
          "internalType": "uint8",
          "name": "_priceIncreasePercentage",
          "type": "uint8"
        },
        {
          "internalType": "string",
          "name": "_cidRoot",
          "type": "string"
        }
      ],
      "stateMutability": "nonpayable",
      "type": "constructor"
    },
    {
      "anonymous": false,
      "inputs": [
        {
          "indexed": true,
          "internalType": "address",
          "name": "owner",
          "type": "address"
        },
        {
          "indexed": true,
          "internalType": "address",
          "name": "approved",
          "type": "address"
        },
        {
          "indexed": true,
          "internalType": "uint256",
          "name": "tokenId",
          "type": "uint256"
        }
      ],
      "name": "Approval",
      "type": "event"
    },
    {
      "anonymous": false,
      "inputs": [
        {
          "indexed": true,
          "internalType": "address",
          "name": "owner",
          "type": "address"
        },
        {
          "indexed": true,
          "internalType": "address",
          "name": "operator",
          "type": "address"
        },
        {
          "indexed": false,
          "internalType": "bool",
          "name": "approved",
          "type": "bool"
        }
      ],
      "name": "ApprovalForAll",
      "type": "event"
    },
    {
      "anonymous": false,
      "inputs": [
        {
          "indexed": true,
          "internalType": "address",
          "name": "previousOwner",
          "type": "address"
        },
        {
          "indexed": true,
          "internalType": "address",
          "name": "newOwner",
          "type": "address"
        }
      ],
      "name": "OwnershipTransferred",
      "type": "event"
    },
    {
      "anonymous": false,
      "inputs": [
        {
          "indexed": true,
          "internalType": "address",
          "name": "from",
          "type": "address"
        },
        {
          "indexed": true,
          "internalType": "address",
          "name": "to",
          "type": "address"
        },
        {
          "indexed": true,
          "internalType": "uint256",
          "name": "tokenId",
          "type": "uint256"
        }
      ],
      "name": "Transfer",
      "type": "event"
    },
    {
      "inputs": [
        {
          "internalType": "address",
          "name": "to",
          "type": "address"
        },
        {
          "internalType": "uint256",
          "name": "tokenId",
          "type": "uint256"
        }
      ],
      "name": "approve",
      "outputs": [],
      "stateMutability": "nonpayable",
      "type": "function"
    },
    {
      "inputs": [
        {
          "internalType": "address",
          "name": "owner",
          "type": "address"
        }
      ],
      "name": "balanceOf",
      "outputs": [
        {
          "internalType": "uint256",
          "name": "",
          "type": "uint256"
        }
      ],
      "stateMutability": "view",
      "type": "function"
    },
    {
      "inputs": [],
      "name": "baseURI",
      "outputs": [
        {
          "internalType": "string",
          "name": "",
          "type": "string"
        }
      ],
      "stateMutability": "view",
      "type": "function"
    },
    {
      "inputs": [],
      "name": "cidRoot",
      "outputs": [
        {
          "internalType": "string",
          "name": "",
          "type": "string"
        }
      ],
      "stateMutability": "view",
      "type": "function"
    },
    {
      "inputs": [],
      "name": "difficulty1Target",
      "outputs": [
        {
          "internalType": "uint256",
          "name": "",
          "type": "uint256"
        }
      ],
      "stateMutability": "view",
      "type": "function"
    },
    {
      "inputs": [],
      "name": "dnaBitLength",
      "outputs": [
        {
          "internalType": "uint8",
          "name": "",
          "type": "uint8"
        }
      ],
      "stateMutability": "view",
      "type": "function"
    },
    {
      "inputs": [
        {
          "internalType": "uint256",
          "name": "tokenId",
          "type": "uint256"
        }
      ],
      "name": "getApproved",
      "outputs": [
        {
          "internalType": "address",
          "name": "",
          "type": "address"
        }
      ],
      "stateMutability": "view",
      "type": "function"
    },
    {
      "inputs": [
        {
          "internalType": "address",
          "name": "owner",
          "type": "address"
        },
        {
          "internalType": "address",
          "name": "operator",
          "type": "address"
        }
      ],
      "name": "isApprovedForAll",
      "outputs": [
        {
          "internalType": "bool",
          "name": "",
          "type": "bool"
        }
      ],
      "stateMutability": "view",
      "type": "function"
    },
    {
      "inputs": [],
      "name": "name",
      "outputs": [
        {
          "internalType": "string",
          "name": "",
          "type": "string"
        }
      ],
      "stateMutability": "view",
      "type": "function"
    },
    {
      "inputs": [],
      "name": "nextPrice",
      "outputs": [
        {
          "internalType": "uint256",
          "name": "",
          "type": "uint256"
        }
      ],
      "stateMutability": "view",
      "type": "function"
    },
    {
      "inputs": [],
      "name": "owner",
      "outputs": [
        {
          "internalType": "address",
          "name": "",
          "type": "address"
        }
      ],
      "stateMutability": "view",
      "type": "function"
    },
    {
      "inputs": [
        {
          "internalType": "uint256",
          "name": "tokenId",
          "type": "uint256"
        }
      ],
      "name": "ownerOf",
      "outputs": [
        {
          "internalType": "address",
          "name": "",
          "type": "address"
        }
      ],
      "stateMutability": "view",
      "type": "function"
    },
    {
      "inputs": [],
      "name": "renounceOwnership",
      "outputs": [],
      "stateMutability": "nonpayable",
      "type": "function"
    },
    {
      "inputs": [
        {
          "internalType": "address",
          "name": "from",
          "type": "address"
        },
        {
          "internalType": "address",
          "name": "to",
          "type": "address"
        },
        {
          "internalType": "uint256",
          "name": "tokenId",
          "type": "uint256"
        }
      ],
      "name": "safeTransferFrom",
      "outputs": [],
      "stateMutability": "nonpayable",
      "type": "function"
    },
    {
      "inputs": [
        {
          "internalType": "address",
          "name": "from",
          "type": "address"
        },
        {
          "internalType": "address",
          "name": "to",
          "type": "address"
        },
        {
          "internalType": "uint256",
          "name": "tokenId",
          "type": "uint256"
        },
        {
          "internalType": "bytes",
          "name": "_data",
          "type": "bytes"
        }
      ],
      "name": "safeTransferFrom",
      "outputs": [],
      "stateMutability": "nonpayable",
      "type": "function"
    },
    {
      "inputs": [
        {
          "internalType": "address",
          "name": "operator",
          "type": "address"
        },
        {
          "internalType": "bool",
          "name": "approved",
          "type": "bool"
        }
      ],
      "name": "setApprovalForAll",
      "outputs": [],
      "stateMutability": "nonpayable",
      "type": "function"
    },
    {
      "inputs": [
        {
          "internalType": "bytes4",
          "name": "interfaceId",
          "type": "bytes4"
        }
      ],
      "name": "supportsInterface",
      "outputs": [
        {
          "internalType": "bool",
          "name": "",
          "type": "bool"
        }
      ],
      "stateMutability": "view",
      "type": "function"
    },
    {
      "inputs": [],
      "name": "symbol",
      "outputs": [
        {
          "internalType": "string",
          "name": "",
          "type": "string"
        }
      ],
      "stateMutability": "view",
      "type": "function"
    },
    {
      "inputs": [
        {
          "internalType": "uint256",
          "name": "index",
          "type": "uint256"
        }
      ],
      "name": "tokenByIndex",
      "outputs": [
        {
          "internalType": "uint256",
          "name": "",
          "type": "uint256"
        }
      ],
      "stateMutability": "view",
      "type": "function"
    },
    {
      "inputs": [
        {
          "internalType": "address",
          "name": "owner",
          "type": "address"
        },
        {
          "internalType": "uint256",
          "name": "index",
          "type": "uint256"
        }
      ],
      "name": "tokenOfOwnerByIndex",
      "outputs": [
        {
          "internalType": "uint256",
          "name": "",
          "type": "uint256"
        }
      ],
      "stateMutability": "view",
      "type": "function"
    },
    {
      "inputs": [
        {
          "internalType": "uint256",
          "name": "tokenId",
          "type": "uint256"
        }
      ],
      "name": "tokenURI",
      "outputs": [
        {
          "internalType": "string",
          "name": "",
          "type": "string"
        }
      ],
      "stateMutability": "view",
      "type": "function"
    },
    {
      "inputs": [
        {
          "internalType": "uint256",
          "name": "",
          "type": "uint256"
        }
      ],
      "name": "tokens",
      "outputs": [
        {
          "internalType": "bytes32",
          "name": "dna",
          "type": "bytes32"
        },
        {
          "internalType": "string",
          "name": "name",
          "type": "string"
        },
        {
          "internalType": "uint256",
          "name": "difficulty",
          "type": "uint256"
        }
      ],
      "stateMutability": "view",
      "type": "function"
    },
    {
      "inputs": [],
      "name": "totalDifficulty",
      "outputs": [
        {
          "internalType": "uint256",
          "name": "",
          "type": "uint256"
        }
      ],
      "stateMutability": "view",
      "type": "function"
    },
    {
      "inputs": [],
      "name": "totalSupply",
      "outputs": [
        {
          "internalType": "uint256",
          "name": "",
          "type": "uint256"
        }
      ],
      "stateMutability": "view",
      "type": "function"
    },
    {
      "inputs": [
        {
          "internalType": "address",
          "name": "from",
          "type": "address"
        },
        {
          "internalType": "address",
          "name": "to",
          "type": "address"
        },
        {
          "internalType": "uint256",
          "name": "tokenId",
          "type": "uint256"
        }
      ],
      "name": "transferFrom",
      "outputs": [],
      "stateMutability": "nonpayable",
      "type": "function"
    },
    {
      "inputs": [
        {
          "internalType": "address",
          "name": "newOwner",
          "type": "address"
        }
      ],
      "name": "transferOwnership",
      "outputs": [],
      "stateMutability": "nonpayable",
      "type": "function"
    },
    {
      "inputs": [
        {
          "internalType": "uint256",
          "name": "_seed",
          "type": "uint256"
        },
        {
          "internalType": "string",
          "name": "_name",
          "type": "string"
        },
        {
          "internalType": "string",
          "name": "_tokenUri",
          "type": "string"
        }
      ],
      "name": "mint",
      "outputs": [
        {
          "internalType": "uint256",
          "name": "",
          "type": "uint256"
        }
      ],
      "stateMutability": "payable",
      "type": "function"
    },
    {
      "inputs": [
        {
          "internalType": "bytes32",
          "name": "_dna",
          "type": "bytes32"
        }
      ],
      "name": "dnaExists",
      "outputs": [
        {
          "internalType": "bool",
          "name": "",
          "type": "bool"
        }
      ],
      "stateMutability": "view",
      "type": "function"
    },
    {
      "inputs": [
        {
          "internalType": "string",
          "name": "_name",
          "type": "string"
        }
      ],
      "name": "nameExists",
      "outputs": [
        {
          "internalType": "bool",
          "name": "",
          "type": "bool"
        }
      ],
      "stateMutability": "view",
      "type": "function"
    },
    {
      "inputs": [
        {
          "internalType": "uint256",
          "name": "tokenId",
          "type": "uint256"
        }
      ],
      "name": "getTokenURI",
      "outputs": [
        {
          "internalType": "string",
          "name": "",
          "type": "string"
        }
      ],
      "stateMutability": "view",
      "type": "function"
    },
    {
      "inputs": [],
      "name": "getAverageDifficulty",
      "outputs": [
        {
          "internalType": "uint256",
          "name": "",
          "type": "uint256"
        }
      ],
      "stateMutability": "view",
      "type": "function"
    },
    {
      "inputs": [
        {
          "internalType": "uint256",
          "name": "tokenId",
          "type": "uint256"
        }
      ],
      "name": "getTokenOverview",
      "outputs": [
        {
          "internalType": "string",
          "name": "",
          "type": "string"
        },
        {
          "internalType": "bytes32",
          "name": "",
          "type": "bytes32"
        },
        {
          "internalType": "uint256",
          "name": "",
          "type": "uint256"
        }
      ],
      "stateMutability": "view",
      "type": "function"
    }
  ],
  "bytecode": "0x60806040523480156200001157600080fd5b506040516200458538038062004585833981810160405260e08110156200003757600080fd5b81019080805160405193929190846401000000008211156200005857600080fd5b838201915060208201858111156200006f57600080fd5b82518660018202830111640100000000821117156200008d57600080fd5b8083526020830192505050908051906020019080838360005b83811015620000c3578082015181840152602081019050620000a6565b50505050905090810190601f168015620000f15780820380516001836020036101000a031916815260200191505b50604052602001805160405193929190846401000000008211156200011557600080fd5b838201915060208201858111156200012c57600080fd5b82518660018202830111640100000000821117156200014a57600080fd5b8083526020830192505050908051906020019080838360005b838110156200018057808201518184015260208101905062000163565b50505050905090810190601f168015620001ae5780820380516001836020036101000a031916815260200191505b506040526020018051906020019092919080519060200190929190805190602001909291908051906020019092919080516040519392919084640100000000821115620001fa57600080fd5b838201915060208201858111156200021157600080fd5b82518660018202830111640100000000821117156200022f57600080fd5b8083526020830192505050908051906020019080838360005b838110156200026557808201518184015260208101905062000248565b50505050905090810190601f168015620002935780820380516001836020036101000a031916815260200191505b506040525050508686620002b46301ffc9a760e01b6200045860201b60201c565b8160069080519060200190620002cc92919062000569565b508060079080519060200190620002e592919062000569565b50620002fe6380ac58cd60e01b6200045860201b60201c565b62000316635b5e139f60e01b6200045860201b60201c565b6200032e63780e9d6360e01b6200045860201b60201c565b50506000620003426200056160201b60201c565b905080600a60006101000a81548173ffffffffffffffffffffffffffffffffffffffff021916908373ffffffffffffffffffffffffffffffffffffffff1602179055508073ffffffffffffffffffffffffffffffffffffffff16600073ffffffffffffffffffffffffffffffffffffffff167f8be0079c531659141344cd1fd0a4f28419497f9722a3daafe3b4186f6b6457e060405160405180910390a35060018560ff166101000360020a03600b8190555083600d60006101000a81548160ff021916908360ff16021790555082600f8190555081601060006101000a81548160ff021916908360ff16021790555080600e90805190602001906200044a92919062000569565b505050505050505062000618565b63ffffffff60e01b817bffffffffffffffffffffffffffffffffffffffffffffffffffffffff19161415620004f5576040517f08c379a000000000000000000000000000000000000000000000000000000000815260040180806020018281038252601c8152602001807f4552433136353a20696e76616c696420696e746572666163652069640000000081525060200191505060405180910390fd5b6001600080837bffffffffffffffffffffffffffffffffffffffffffffffffffffffff19167bffffffffffffffffffffffffffffffffffffffffffffffffffffffff1916815260200190815260200160002060006101000a81548160ff02191690831515021790555050565b600033905090565b828054600181600116156101000203166002900490600052602060002090601f016020900481019282601f10620005ac57805160ff1916838001178555620005dd565b82800160010185558215620005dd579182015b82811115620005dc578251825591602001919060010190620005bf565b5b509050620005ec9190620005f0565b5090565b6200061591905b8082111562000611576000816000905550600101620005f7565b5090565b90565b613f5d80620006286000396000f3fe6080604052600436106101e35760003560e01c806370a0823111610102578063ba54b14c11610095578063e985e9c511610064578063e985e9c514610ffa578063e9f5602914611083578063ef9089d6146110d6578063f2fde38b14611101576101e3565b8063ba54b14c14610e0a578063c87b56dd14610e35578063cc637afe14610ee9578063de933e4d14610fc9576101e3565b806395d89b41116100d157806395d89b4114610be0578063a22cb46514610c70578063a71e2b4914610ccd578063b88d4fde14610cf8576101e3565b806370a0823114610a4b578063715018a614610ab0578063837dd43114610ac75780638da5cb5b14610b89576101e3565b80632f745c591161017a5780634f6ccce7116101495780634f6ccce7146108615780636352211e146108b057806363d35c901461092b5780636c0360eb146109bb576101e3565b80632f745c59146106015780633bb3a24d1461067057806342842e0e146107245780634f64b2be1461079f576101e3565b8063141677dd116101b6578063141677dd146103c057806318160ddd146103eb57806323b872dd146104165780632825df7b14610491576101e3565b806301ffc9a7146101e857806306fdde031461025a578063081812fc146102ea578063095ea7b314610365575b600080fd5b3480156101f457600080fd5b506102406004803603602081101561020b57600080fd5b8101908080357bffffffffffffffffffffffffffffffffffffffffffffffffffffffff19169060200190929190505050611152565b604051808215151515815260200191505060405180910390f35b34801561026657600080fd5b5061026f6111b9565b6040518080602001828103825283818151815260200191508051906020019080838360005b838110156102af578082015181840152602081019050610294565b50505050905090810190601f1680156102dc5780820380516001836020036101000a031916815260200191505b509250505060405180910390f35b3480156102f657600080fd5b506103236004803603602081101561030d57600080fd5b810190808035906020019092919050505061125b565b604051808273ffffffffffffffffffffffffffffffffffffffff1673ffffffffffffffffffffffffffffffffffffffff16815260200191505060405180910390f35b34801561037157600080fd5b506103be6004803603604081101561038857600080fd5b81019080803573ffffffffffffffffffffffffffffffffffffffff169060200190929190803590602001909291905050506112f6565b005b3480156103cc57600080fd5b506103d561143a565b6040518082815260200191505060405180910390f35b3480156103f757600080fd5b50610400611452565b6040518082815260200191505060405180910390f35b34801561042257600080fd5b5061048f6004803603606081101561043957600080fd5b81019080803573ffffffffffffffffffffffffffffffffffffffff169060200190929190803573ffffffffffffffffffffffffffffffffffffffff16906020019092919080359060200190929190505050611463565b005b6105eb600480360360608110156104a757600080fd5b8101908080359060200190929190803590602001906401000000008111156104ce57600080fd5b8201836020820111156104e057600080fd5b8035906020019184600183028401116401000000008311171561050257600080fd5b91908080601f016020809104026020016040519081016040528093929190818152602001838380828437600081840152601f19601f8201169050808301925050505050505091929192908035906020019064010000000081111561056557600080fd5b82018360208201111561057757600080fd5b8035906020019184600183028401116401000000008311171561059957600080fd5b91908080601f016020809104026020016040519081016040528093929190818152602001838380828437600081840152601f19601f8201169050808301925050505050505091929192905050506114d9565b6040518082815260200191505060405180910390f35b34801561060d57600080fd5b5061065a6004803603604081101561062457600080fd5b81019080803573ffffffffffffffffffffffffffffffffffffffff169060200190929190803590602001909291905050506118d5565b6040518082815260200191505060405180910390f35b34801561067c57600080fd5b506106a96004803603602081101561069357600080fd5b8101908080359060200190929190505050611930565b6040518080602001828103825283818151815260200191508051906020019080838360005b838110156106e95780820151818401526020810190506106ce565b50505050905090810190601f1680156107165780820380516001836020036101000a031916815260200191505b509250505060405180910390f35b34801561073057600080fd5b5061079d6004803603606081101561074757600080fd5b81019080803573ffffffffffffffffffffffffffffffffffffffff169060200190929190803573ffffffffffffffffffffffffffffffffffffffff16906020019092919080359060200190929190505050611942565b005b3480156107ab57600080fd5b506107d8600480360360208110156107c257600080fd5b8101908080359060200190929190505050611962565b6040518084815260200180602001838152602001828103825284818151815260200191508051906020019080838360005b83811015610824578082015181840152602081019050610809565b50505050905090810190601f1680156108515780820380516001836020036101000a031916815260200191505b5094505050505060405180910390f35b34801561086d57600080fd5b5061089a6004803603602081101561088457600080fd5b8101908080359060200190929190505050611a31565b6040518082815260200191505060405180910390f35b3480156108bc57600080fd5b506108e9600480360360208110156108d357600080fd5b8101908080359060200190929190505050611a54565b604051808273ffffffffffffffffffffffffffffffffffffffff1673ffffffffffffffffffffffffffffffffffffffff16815260200191505060405180910390f35b34801561093757600080fd5b50610940611a8b565b6040518080602001828103825283818151815260200191508051906020019080838360005b83811015610980578082015181840152602081019050610965565b50505050905090810190601f1680156109ad5780820380516001836020036101000a031916815260200191505b509250505060405180910390f35b3480156109c757600080fd5b506109d0611b29565b6040518080602001828103825283818151815260200191508051906020019080838360005b83811015610a105780820151818401526020810190506109f5565b50505050905090810190601f168015610a3d5780820380516001836020036101000a031916815260200191505b509250505060405180910390f35b348015610a5757600080fd5b50610a9a60048036036020811015610a6e57600080fd5b81019080803573ffffffffffffffffffffffffffffffffffffffff169060200190929190505050611bcb565b6040518082815260200191505060405180910390f35b348015610abc57600080fd5b50610ac5611ca0565b005b348015610ad357600080fd5b50610b0060048036036020811015610aea57600080fd5b8101908080359060200190929190505050611e10565b6040518080602001848152602001838152602001828103825285818151815260200191508051906020019080838360005b83811015610b4c578082015181840152602081019050610b31565b50505050905090810190601f168015610b795780820380516001836020036101000a031916815260200191505b5094505050505060405180910390f35b348015610b9557600080fd5b50610b9e611f1a565b604051808273ffffffffffffffffffffffffffffffffffffffff1673ffffffffffffffffffffffffffffffffffffffff16815260200191505060405180910390f35b348015610bec57600080fd5b50610bf5611f44565b6040518080602001828103825283818151815260200191508051906020019080838360005b83811015610c35578082015181840152602081019050610c1a565b50505050905090810190601f168015610c625780820380516001836020036101000a031916815260200191505b509250505060405180910390f35b348015610c7c57600080fd5b50610ccb60048036036040811015610c9357600080fd5b81019080803573ffffffffffffffffffffffffffffffffffffffff169060200190929190803515159060200190929190505050611fe6565b005b348015610cd957600080fd5b50610ce261219e565b6040518082815260200191505060405180910390f35b348015610d0457600080fd5b50610e0860048036036080811015610d1b57600080fd5b81019080803573ffffffffffffffffffffffffffffffffffffffff169060200190929190803573ffffffffffffffffffffffffffffffffffffffff1690602001909291908035906020019092919080359060200190640100000000811115610d8257600080fd5b820183602082011115610d9457600080fd5b80359060200191846001830284011164010000000083111715610db657600080fd5b91908080601f016020809104026020016040519081016040528093929190818152602001838380828437600081840152601f19601f8201169050808301925050505050505091929192905050506121a4565b005b348015610e1657600080fd5b50610e1f61221c565b6040518082815260200191505060405180910390f35b348015610e4157600080fd5b50610e6e60048036036020811015610e5857600080fd5b8101908080359060200190929190505050612222565b6040518080602001828103825283818151815260200191508051906020019080838360005b83811015610eae578082015181840152602081019050610e93565b50505050905090810190601f168015610edb5780820380516001836020036101000a031916815260200191505b509250505060405180910390f35b348015610ef557600080fd5b50610faf60048036036020811015610f0c57600080fd5b8101908080359060200190640100000000811115610f2957600080fd5b820183602082011115610f3b57600080fd5b80359060200191846001830284011164010000000083111715610f5d57600080fd5b91908080601f016020809104026020016040519081016040528093929190818152602001838380828437600081840152601f19601f8201169050808301925050505050505091929192905050506124f3565b604051808215151515815260200191505060405180910390f35b348015610fd557600080fd5b50610fde612580565b604051808260ff1660ff16815260200191505060405180910390f35b34801561100657600080fd5b506110696004803603604081101561101d57600080fd5b81019080803573ffffffffffffffffffffffffffffffffffffffff169060200190929190803573ffffffffffffffffffffffffffffffffffffffff169060200190929190505050612593565b604051808215151515815260200191505060405180910390f35b34801561108f57600080fd5b506110bc600480360360208110156110a657600080fd5b8101908080359060200190929190505050612627565b604051808215151515815260200191505060405180910390f35b3480156110e257600080fd5b506110eb612660565b6040518082815260200191505060405180910390f35b34801561110d57600080fd5b506111506004803603602081101561112457600080fd5b81019080803573ffffffffffffffffffffffffffffffffffffffff169060200190929190505050612666565b005b6000806000837bffffffffffffffffffffffffffffffffffffffffffffffffffffffff19167bffffffffffffffffffffffffffffffffffffffffffffffffffffffff1916815260200190815260200160002060009054906101000a900460ff169050919050565b606060068054600181600116156101000203166002900480601f0160208091040260200160405190810160405280929190818152602001828054600181600116156101000203166002900480156112515780601f1061122657610100808354040283529160200191611251565b820191906000526020600020905b81548152906001019060200180831161123457829003601f168201915b5050505050905090565b60006112668261285b565b6112bb576040517f08c379a000000000000000000000000000000000000000000000000000000000815260040180806020018281038252602c815260200180613e26602c913960400191505060405180910390fd5b6004600083815260200190815260200160002060009054906101000a900473ffffffffffffffffffffffffffffffffffffffff169050919050565b600061130182611a54565b90508073ffffffffffffffffffffffffffffffffffffffff168373ffffffffffffffffffffffffffffffffffffffff161415611388576040517f08c379a0000000000000000000000000000000000000000000000000000000008152600401808060200182810382526021815260200180613ed66021913960400191505060405180910390fd5b8073ffffffffffffffffffffffffffffffffffffffff166113a7612878565b73ffffffffffffffffffffffffffffffffffffffff1614806113d657506113d5816113d0612878565b612593565b5b61142b576040517f08c379a0000000000000000000000000000000000000000000000000000000008152600401808060200182810382526038815260200180613d796038913960400191505060405180910390fd5b6114358383612880565b505050565b6000601380549050600c548161144c57fe5b04905090565b600061145e6002612939565b905090565b61147461146e612878565b8261294e565b6114c9576040517f08c379a0000000000000000000000000000000000000000000000000000000008152600401808060200182810382526031815260200180613ef76031913960400191505060405180910390fd5b6114d4838383612a42565b505050565b6000600f54341015611553576040517f08c379a000000000000000000000000000000000000000000000000000000000815260040180806020018281038252600f8152602001807f6e6f7420656e6f7567682070616964000000000000000000000000000000000081525060200191505060405180910390fd5b6064601060009054906101000a900460ff1660ff16600f54028161157357fe5b04600f6000828254019250508190555061158c836124f3565b156115ff576040517f08c379a00000000000000000000000000000000000000000000000000000000081526004018080602001828103825260138152602001807f6e616d65206d75737420626520756e697175650000000000000000000000000081525060200191505060405180910390fd5b60003361160a611f44565b86604051602001808473ffffffffffffffffffffffffffffffffffffffff1673ffffffffffffffffffffffffffffffffffffffff1660601b815260140183805190602001908083835b602083106116765780518252602082019150602081019050602083039250611653565b6001836020036101000a0380198251168184511680821785525050505050509050018281526020019350505050604051602081830303815290604052805190602001209050600b548160001c1115611736576040517f08c379a000000000000000000000000000000000000000000000000000000000815260040180806020018281038252600f8152602001807f6e6f7420656e6f75676820776f726b000000000000000000000000000000000081525060200191505060405180910390fd5b6000600d60009054906101000a900460ff1660ff1660020a8260001c8161175957fe5b0660001b905060008260001c600b548161176f57fe5b04905080600c6000828254019250508190555060016012876040518082805190602001908083835b602083106117ba5780518252602082019150602081019050602083039250611797565b6001836020036101000a038019825116818451168082178552505050505050905001915050908152602001604051809103902060006101000a81548160ff02191690831515021790555060016011600084815260200190815260200160002060006101000a81548160ff02191690831515021790555060006013805490509050601360405180606001604052808581526020018981526020018481525090806001815401808255809150506001900390600052602060002090600302016000909190919091506000820151816000015560208201518160010190805190602001906118a6929190613be3565b506040820151816002015550506118bd3382612c85565b6118c78187612ca3565b809450505050509392505050565b600061192882600160008673ffffffffffffffffffffffffffffffffffffffff1673ffffffffffffffffffffffffffffffffffffffff168152602001908152602001600020612d2d90919063ffffffff16565b905092915050565b606061193b82612222565b9050919050565b61195d838383604051806020016040528060008152506121a4565b505050565b6013818154811061196f57fe5b9060005260206000209060030201600091509050806000015490806001018054600181600116156101000203166002900480601f016020809104026020016040519081016040528092919081815260200182805460018160011615610100020316600290048015611a215780601f106119f657610100808354040283529160200191611a21565b820191906000526020600020905b815481529060010190602001808311611a0457829003601f168201915b5050505050908060020154905083565b600080611a48836002612d4790919063ffffffff16565b50905080915050919050565b6000611a8482604051806060016040528060298152602001613ddb602991396002612d769092919063ffffffff16565b9050919050565b600e8054600181600116156101000203166002900480601f016020809104026020016040519081016040528092919081815260200182805460018160011615610100020316600290048015611b215780601f10611af657610100808354040283529160200191611b21565b820191906000526020600020905b815481529060010190602001808311611b0457829003601f168201915b505050505081565b606060098054600181600116156101000203166002900480601f016020809104026020016040519081016040528092919081815260200182805460018160011615610100020316600290048015611bc15780601f10611b9657610100808354040283529160200191611bc1565b820191906000526020600020905b815481529060010190602001808311611ba457829003601f168201915b5050505050905090565b60008073ffffffffffffffffffffffffffffffffffffffff168273ffffffffffffffffffffffffffffffffffffffff161415611c52576040517f08c379a000000000000000000000000000000000000000000000000000000000815260040180806020018281038252602a815260200180613db1602a913960400191505060405180910390fd5b611c99600160008473ffffffffffffffffffffffffffffffffffffffff1673ffffffffffffffffffffffffffffffffffffffff168152602001908152602001600020612d95565b9050919050565b611ca8612878565b73ffffffffffffffffffffffffffffffffffffffff16611cc6611f1a565b73ffffffffffffffffffffffffffffffffffffffff1614611d4f576040517f08c379a00000000000000000000000000000000000000000000000000000000081526004018080602001828103825260208152602001807f4f776e61626c653a2063616c6c6572206973206e6f7420746865206f776e657281525060200191505060405180910390fd5b600073ffffffffffffffffffffffffffffffffffffffff16600a60009054906101000a900473ffffffffffffffffffffffffffffffffffffffff1673ffffffffffffffffffffffffffffffffffffffff167f8be0079c531659141344cd1fd0a4f28419497f9722a3daafe3b4186f6b6457e060405160405180910390a36000600a60006101000a81548173ffffffffffffffffffffffffffffffffffffffff021916908373ffffffffffffffffffffffffffffffffffffffff160217905550565b606060008060138481548110611e2257fe5b906000526020600020906003020160010160138581548110611e4057fe5b90600052602060002090600302016000015460138681548110611e5f57fe5b906000526020600020906003020160020154828054600181600116156101000203166002900480601f016020809104026020016040519081016040528092919081815260200182805460018160011615610100020316600290048015611f065780601f10611edb57610100808354040283529160200191611f06565b820191906000526020600020905b815481529060010190602001808311611ee957829003601f168201915b505050505092509250925092509193909250565b6000600a60009054906101000a900473ffffffffffffffffffffffffffffffffffffffff16905090565b606060078054600181600116156101000203166002900480601f016020809104026020016040519081016040528092919081815260200182805460018160011615610100020316600290048015611fdc5780601f10611fb157610100808354040283529160200191611fdc565b820191906000526020600020905b815481529060010190602001808311611fbf57829003601f168201915b5050505050905090565b611fee612878565b73ffffffffffffffffffffffffffffffffffffffff168273ffffffffffffffffffffffffffffffffffffffff16141561208f576040517f08c379a00000000000000000000000000000000000000000000000000000000081526004018080602001828103825260198152602001807f4552433732313a20617070726f766520746f2063616c6c65720000000000000081525060200191505060405180910390fd5b806005600061209c612878565b73ffffffffffffffffffffffffffffffffffffffff1673ffffffffffffffffffffffffffffffffffffffff16815260200190815260200160002060008473ffffffffffffffffffffffffffffffffffffffff1673ffffffffffffffffffffffffffffffffffffffff16815260200190815260200160002060006101000a81548160ff0219169083151502179055508173ffffffffffffffffffffffffffffffffffffffff16612149612878565b73ffffffffffffffffffffffffffffffffffffffff167f17307eab39ab6107e8899845ad3d59bd9653f200f220920489ca2b5937696c3183604051808215151515815260200191505060405180910390a35050565b600b5481565b6121b56121af612878565b8361294e565b61220a576040517f08c379a0000000000000000000000000000000000000000000000000000000008152600401808060200182810382526031815260200180613ef76031913960400191505060405180910390fd5b61221684848484612daa565b50505050565b600c5481565b606061222d8261285b565b612282576040517f08c379a000000000000000000000000000000000000000000000000000000000815260040180806020018281038252602f815260200180613ea7602f913960400191505060405180910390fd5b6060600860008481526020019081526020016000208054600181600116156101000203166002900480601f01602080910402602001604051908101604052809291908181526020018280546001816001161561010002031660029004801561232b5780601f106123005761010080835404028352916020019161232b565b820191906000526020600020905b81548152906001019060200180831161230e57829003601f168201915b50505050509050606061233c611b29565b90506000815114156123525781925050506124ee565b6000825111156124235780826040516020018083805190602001908083835b602083106123945780518252602082019150602081019050602083039250612371565b6001836020036101000a03801982511681845116808217855250505050505090500182805190602001908083835b602083106123e557805182526020820191506020810190506020830392506123c2565b6001836020036101000a03801982511681845116808217855250505050505090500192505050604051602081830303815290604052925050506124ee565b8061242d85612e1c565b6040516020018083805190602001908083835b602083106124635780518252602082019150602081019050602083039250612440565b6001836020036101000a03801982511681845116808217855250505050505090500182805190602001908083835b602083106124b45780518252602082019150602081019050602083039250612491565b6001836020036101000a03801982511681845116808217855250505050505090500192505050604051602081830303815290604052925050505b919050565b60008082511415801561257957506012826040518082805190602001908083835b602083106125375780518252602082019150602081019050602083039250612514565b6001836020036101000a038019825116818451168082178552505050505050905001915050908152602001604051809103902060009054906101000a900460ff165b9050919050565b600d60009054906101000a900460ff1681565b6000600560008473ffffffffffffffffffffffffffffffffffffffff1673ffffffffffffffffffffffffffffffffffffffff16815260200190815260200160002060008373ffffffffffffffffffffffffffffffffffffffff1673ffffffffffffffffffffffffffffffffffffffff16815260200190815260200160002060009054906101000a900460ff16905092915050565b6000808260001c1415801561265957506011600083815260200190815260200160002060009054906101000a900460ff165b9050919050565b600f5481565b61266e612878565b73ffffffffffffffffffffffffffffffffffffffff1661268c611f1a565b73ffffffffffffffffffffffffffffffffffffffff1614612715576040517f08c379a00000000000000000000000000000000000000000000000000000000081526004018080602001828103825260208152602001807f4f776e61626c653a2063616c6c6572206973206e6f7420746865206f776e657281525060200191505060405180910390fd5b600073ffffffffffffffffffffffffffffffffffffffff168173ffffffffffffffffffffffffffffffffffffffff16141561279b576040517f08c379a0000000000000000000000000000000000000000000000000000000008152600401808060200182810382526026815260200180613cdd6026913960400191505060405180910390fd5b8073ffffffffffffffffffffffffffffffffffffffff16600a60009054906101000a900473ffffffffffffffffffffffffffffffffffffffff1673ffffffffffffffffffffffffffffffffffffffff167f8be0079c531659141344cd1fd0a4f28419497f9722a3daafe3b4186f6b6457e060405160405180910390a380600a60006101000a81548173ffffffffffffffffffffffffffffffffffffffff021916908373ffffffffffffffffffffffffffffffffffffffff16021790555050565b6000612871826002612f6390919063ffffffff16565b9050919050565b600033905090565b816004600083815260200190815260200160002060006101000a81548173ffffffffffffffffffffffffffffffffffffffff021916908373ffffffffffffffffffffffffffffffffffffffff160217905550808273ffffffffffffffffffffffffffffffffffffffff166128f383611a54565b73ffffffffffffffffffffffffffffffffffffffff167f8c5be1e5ebec7d5bd14f71427d1e84f3dd0314c0f7b2291e5b200ac8c7c3b92560405160405180910390a45050565b600061294782600001612f7d565b9050919050565b60006129598261285b565b6129ae576040517f08c379a000000000000000000000000000000000000000000000000000000000815260040180806020018281038252602c815260200180613d4d602c913960400191505060405180910390fd5b60006129b983611a54565b90508073ffffffffffffffffffffffffffffffffffffffff168473ffffffffffffffffffffffffffffffffffffffff161480612a2857508373ffffffffffffffffffffffffffffffffffffffff16612a108461125b565b73ffffffffffffffffffffffffffffffffffffffff16145b80612a395750612a388185612593565b5b91505092915050565b8273ffffffffffffffffffffffffffffffffffffffff16612a6282611a54565b73ffffffffffffffffffffffffffffffffffffffff1614612ace576040517f08c379a0000000000000000000000000000000000000000000000000000000008152600401808060200182810382526029815260200180613e7e6029913960400191505060405180910390fd5b600073ffffffffffffffffffffffffffffffffffffffff168273ffffffffffffffffffffffffffffffffffffffff161415612b54576040517f08c379a0000000000000000000000000000000000000000000000000000000008152600401808060200182810382526024815260200180613d036024913960400191505060405180910390fd5b612b5f838383612f8e565b612b6a600082612880565b612bbb81600160008673ffffffffffffffffffffffffffffffffffffffff1673ffffffffffffffffffffffffffffffffffffffff168152602001908152602001600020612f9390919063ffffffff16565b50612c0d81600160008573ffffffffffffffffffffffffffffffffffffffff1673ffffffffffffffffffffffffffffffffffffffff168152602001908152602001600020612fad90919063ffffffff16565b50612c2481836002612fc79092919063ffffffff16565b50808273ffffffffffffffffffffffffffffffffffffffff168473ffffffffffffffffffffffffffffffffffffffff167fddf252ad1be2c89b69c2b068fc378daa952ba7f163c4a11628f55a4df523b3ef60405160405180910390a4505050565b612c9f828260405180602001604052806000815250612ffc565b5050565b612cac8261285b565b612d01576040517f08c379a000000000000000000000000000000000000000000000000000000000815260040180806020018281038252602c815260200180613e52602c913960400191505060405180910390fd5b80600860008481526020019081526020016000209080519060200190612d28929190613be3565b505050565b6000612d3c836000018361306d565b60001c905092915050565b600080600080612d5a86600001866130f0565b915091508160001c8160001c8090509350935050509250929050565b6000612d89846000018460001b84613189565b60001c90509392505050565b6000612da38260000161327f565b9050919050565b612db5848484612a42565b612dc184848484613290565b612e16576040517f08c379a0000000000000000000000000000000000000000000000000000000008152600401808060200182810382526032815260200180613cab6032913960400191505060405180910390fd5b50505050565b60606000821415612e64576040518060400160405280600181526020017f30000000000000000000000000000000000000000000000000000000000000008152509050612f5e565b600082905060005b60008214612e8e578080600101915050600a8281612e8657fe5b049150612e6c565b60608167ffffffffffffffff81118015612ea757600080fd5b506040519080825280601f01601f191660200182016040528015612eda5781602001600182028036833780820191505090505b50905060006001830390508593505b60008414612f5657600a8481612efb57fe5b0660300160f81b82828060019003935081518110612f1557fe5b60200101907effffffffffffffffffffffffffffffffffffffffffffffffffffffffffffff1916908160001a905350600a8481612f4e57fe5b049350612ee9565b819450505050505b919050565b6000612f75836000018360001b6134d5565b905092915050565b600081600001805490509050919050565b505050565b6000612fa5836000018360001b6134f8565b905092915050565b6000612fbf836000018360001b6135e0565b905092915050565b6000612ff3846000018460001b8473ffffffffffffffffffffffffffffffffffffffff1660001b613650565b90509392505050565b613006838361372c565b6130136000848484613290565b613068576040517f08c379a0000000000000000000000000000000000000000000000000000000008152600401808060200182810382526032815260200180613cab6032913960400191505060405180910390fd5b505050565b6000818360000180549050116130ce576040517f08c379a0000000000000000000000000000000000000000000000000000000008152600401808060200182810382526022815260200180613c896022913960400191505060405180910390fd5b8260000182815481106130dd57fe5b9060005260206000200154905092915050565b60008082846000018054905011613152576040517f08c379a0000000000000000000000000000000000000000000000000000000008152600401808060200182810382526022815260200180613e046022913960400191505060405180910390fd5b600084600001848154811061316357fe5b906000526020600020906002020190508060000154816001015492509250509250929050565b60008084600101600085815260200190815260200160002054905060008114158390613250576040517f08c379a00000000000000000000000000000000000000000000000000000000081526004018080602001828103825283818151815260200191508051906020019080838360005b838110156132155780820151818401526020810190506131fa565b50505050905090810190601f1680156132425780820380516001836020036101000a031916815260200191505b509250505060405180910390fd5b5084600001600182038154811061326357fe5b9060005260206000209060020201600101549150509392505050565b600081600001805490509050919050565b60006132b18473ffffffffffffffffffffffffffffffffffffffff16613920565b6132be57600190506134cd565b606061345463150b7a0260e01b6132d3612878565b888787604051602401808573ffffffffffffffffffffffffffffffffffffffff1673ffffffffffffffffffffffffffffffffffffffff1681526020018473ffffffffffffffffffffffffffffffffffffffff1673ffffffffffffffffffffffffffffffffffffffff16815260200183815260200180602001828103825283818151815260200191508051906020019080838360005b83811015613383578082015181840152602081019050613368565b50505050905090810190601f1680156133b05780820380516001836020036101000a031916815260200191505b5095505050505050604051602081830303815290604052907bffffffffffffffffffffffffffffffffffffffffffffffffffffffff19166020820180517bffffffffffffffffffffffffffffffffffffffffffffffffffffffff8381831617835250505050604051806060016040528060328152602001613cab603291398773ffffffffffffffffffffffffffffffffffffffff166139339092919063ffffffff16565b9050600081806020019051602081101561346d57600080fd5b8101908080519060200190929190505050905063150b7a0260e01b7bffffffffffffffffffffffffffffffffffffffffffffffffffffffff1916817bffffffffffffffffffffffffffffffffffffffffffffffffffffffff191614925050505b949350505050565b600080836001016000848152602001908152602001600020541415905092915050565b600080836001016000848152602001908152602001600020549050600081146135d4576000600182039050600060018660000180549050039050600086600001828154811061354357fe5b906000526020600020015490508087600001848154811061356057fe5b906000526020600020018190555060018301876001016000838152602001908152602001600020819055508660000180548061359857fe5b600190038181906000526020600020016000905590558660010160008781526020019081526020016000206000905560019450505050506135da565b60009150505b92915050565b60006135ec838361394b565b61364557826000018290806001815401808255809150506001900390600052602060002001600090919091909150558260000180549050836001016000848152602001908152602001600020819055506001905061364a565b600090505b92915050565b60008084600101600085815260200190815260200160002054905060008114156136f757846000016040518060400160405280868152602001858152509080600181540180825580915050600190039060005260206000209060020201600090919091909150600082015181600001556020820151816001015550508460000180549050856001016000868152602001908152602001600020819055506001915050613725565b8285600001600183038154811061370a57fe5b90600052602060002090600202016001018190555060009150505b9392505050565b600073ffffffffffffffffffffffffffffffffffffffff168273ffffffffffffffffffffffffffffffffffffffff1614156137cf576040517f08c379a00000000000000000000000000000000000000000000000000000000081526004018080602001828103825260208152602001807f4552433732313a206d696e7420746f20746865207a65726f206164647265737381525060200191505060405180910390fd5b6137d88161285b565b1561384b576040517f08c379a000000000000000000000000000000000000000000000000000000000815260040180806020018281038252601c8152602001807f4552433732313a20746f6b656e20616c7265616479206d696e7465640000000081525060200191505060405180910390fd5b61385760008383612f8e565b6138a881600160008573ffffffffffffffffffffffffffffffffffffffff1673ffffffffffffffffffffffffffffffffffffffff168152602001908152602001600020612fad90919063ffffffff16565b506138bf81836002612fc79092919063ffffffff16565b50808273ffffffffffffffffffffffffffffffffffffffff16600073ffffffffffffffffffffffffffffffffffffffff167fddf252ad1be2c89b69c2b068fc378daa952ba7f163c4a11628f55a4df523b3ef60405160405180910390a45050565b600080823b905060008111915050919050565b6060613942848460008561396e565b90509392505050565b600080836001016000848152602001908152602001600020541415905092915050565b6060824710156139c9576040517f08c379a0000000000000000000000000000000000000000000000000000000008152600401808060200182810382526026815260200180613d276026913960400191505060405180910390fd5b6139d285613920565b613a44576040517f08c379a000000000000000000000000000000000000000000000000000000000815260040180806020018281038252601d8152602001807f416464726573733a2063616c6c20746f206e6f6e2d636f6e747261637400000081525060200191505060405180910390fd5b600060608673ffffffffffffffffffffffffffffffffffffffff1685876040518082805190602001908083835b60208310613a945780518252602082019150602081019050602083039250613a71565b6001836020036101000a03801982511681845116808217855250505050505090500191505060006040518083038185875af1925050503d8060008114613af6576040519150601f19603f3d011682016040523d82523d6000602084013e613afb565b606091505b5091509150613b0b828286613b17565b92505050949350505050565b60608315613b2757829050613bdc565b600083511115613b3a5782518084602001fd5b816040517f08c379a00000000000000000000000000000000000000000000000000000000081526004018080602001828103825283818151815260200191508051906020019080838360005b83811015613ba1578082015181840152602081019050613b86565b50505050905090810190601f168015613bce5780820380516001836020036101000a031916815260200191505b509250505060405180910390fd5b9392505050565b828054600181600116156101000203166002900490600052602060002090601f016020900481019282601f10613c2457805160ff1916838001178555613c52565b82800160010185558215613c52579182015b82811115613c51578251825591602001919060010190613c36565b5b509050613c5f9190613c63565b5090565b613c8591905b80821115613c81576000816000905550600101613c69565b5090565b9056fe456e756d657261626c655365743a20696e646578206f7574206f6620626f756e64734552433732313a207472616e7366657220746f206e6f6e20455243373231526563656976657220696d706c656d656e7465724f776e61626c653a206e6577206f776e657220697320746865207a65726f20616464726573734552433732313a207472616e7366657220746f20746865207a65726f2061646472657373416464726573733a20696e73756666696369656e742062616c616e636520666f722063616c6c4552433732313a206f70657261746f7220717565727920666f72206e6f6e6578697374656e7420746f6b656e4552433732313a20617070726f76652063616c6c6572206973206e6f74206f776e6572206e6f7220617070726f76656420666f7220616c6c4552433732313a2062616c616e636520717565727920666f7220746865207a65726f20616464726573734552433732313a206f776e657220717565727920666f72206e6f6e6578697374656e7420746f6b656e456e756d657261626c654d61703a20696e646578206f7574206f6620626f756e64734552433732313a20617070726f76656420717565727920666f72206e6f6e6578697374656e7420746f6b656e4552433732314d657461646174613a2055524920736574206f66206e6f6e6578697374656e7420746f6b656e4552433732313a207472616e73666572206f6620746f6b656e2074686174206973206e6f74206f776e4552433732314d657461646174613a2055524920717565727920666f72206e6f6e6578697374656e7420746f6b656e4552433732313a20617070726f76616c20746f2063757272656e74206f776e65724552433732313a207472616e736665722063616c6c6572206973206e6f74206f776e6572206e6f7220617070726f766564a2646970667358221220f04dbcf5419aa8672228f175f9906438f5cef2de3b7d2eca07fde5334187722f64736f6c63430006060033",
  "immutableReferences": {},
  "source": "// SPDX-License-Identifier: MIT\r\npragma solidity ^0.6.6;\r\n\r\nimport \"@openzeppelin/contracts/token/ERC721/ERC721.sol\";\r\nimport \"@openzeppelin/contracts/access/Ownable.sol\";\r\nimport \"@openzeppelin/contracts/utils/Strings.sol\";\r\n\r\n\r\ncontract Gashapon is ERC721, Ownable {\r\n    using SafeMath for uint256;\r\n    using Strings for string;\r\n\r\n    uint256 public difficulty1Target;\r\n    uint256 public totalDifficulty;\r\n    uint8 public dnaBitLength;\r\n    string public cidRoot;\r\n\r\n    uint256 public nextPrice;\r\n    uint8 priceIncreasePercentage;\r\n\r\n    struct Token {\r\n        bytes32 dna;\r\n        string name;\r\n        uint256 difficulty;\r\n    }\r\n\r\n    mapping(bytes32 => bool) byDna; // dna must be unique\r\n    mapping(string => bool) byName; // Token names must be unique\r\n\r\n    Token[] public tokens;\r\n\r\n    constructor(\r\n        string memory _tokenName,\r\n        string memory _tokenSymbol,\r\n        uint8 _minimumDifficultyBits,\r\n        uint8 _dnaBitLength,\r\n        uint256 _initialPrice,\r\n        uint8 _priceIncreasePercentage,\r\n        string memory _cidRoot\r\n    ) public ERC721(_tokenName, _tokenSymbol)\r\n    {\r\n        // TODO set the artist commission\r\n        difficulty1Target = 2 ** (256 - uint256(_minimumDifficultyBits)) - 1;\r\n        dnaBitLength = _dnaBitLength;\r\n        nextPrice = _initialPrice;\r\n        priceIncreasePercentage = _priceIncreasePercentage;\r\n        cidRoot = _cidRoot;\r\n    }\r\n\r\n    function mint(\r\n        uint256 _seed,\r\n        string memory _name,\r\n        string memory _tokenUri\r\n    ) payable public returns (uint256) {\r\n        require(msg.value >= nextPrice, 'not enough paid');\r\n\r\n        // Increase the next price\r\n        nextPrice += (nextPrice * priceIncreasePercentage / 100);\r\n\r\n        require(!nameExists(_name), 'name must be unique');\r\n\r\n        bytes32 work = keccak256(abi.encodePacked(msg.sender, symbol(), _seed));\r\n        require(uint256(work) <= difficulty1Target, 'not enough work');\r\n\r\n        bytes32 dna = bytes32(uint256(work) % 2 ** uint256(dnaBitLength));\r\n        uint256 difficulty = uint256(difficulty1Target) / uint256(work);\r\n\r\n        totalDifficulty += difficulty;\r\n\r\n        byName[_name] = true;\r\n        byDna[dna] = true;\r\n\r\n        uint256 newId = tokens.length;\r\n\r\n        tokens.push(\r\n            Token(dna, _name, difficulty)\r\n        );\r\n        _safeMint(msg.sender, newId);\r\n        _setTokenURI(newId, _tokenUri);\r\n\r\n        return newId;\r\n    }\r\n\r\n    // TODO burn to get price of last sold less artist commission\r\n\r\n    function dnaExists(bytes32 _dna) public view returns (bool) {\r\n        return uint256(_dna) != 0 && byDna[_dna];\r\n    }\r\n\r\n    function nameExists(string memory _name) public view returns (bool) {\r\n        return bytes(_name).length != 0 && byName[_name];\r\n    }\r\n\r\n    function getTokenURI(uint256 tokenId) public view returns (string memory) {\r\n        return tokenURI(tokenId);\r\n    }\r\n\r\n    function getAverageDifficulty() public view returns (uint256) {\r\n        return totalDifficulty / tokens.length;\r\n    }\r\n\r\n    function getTokenOverview(uint256 tokenId) public view returns (string memory, bytes32, uint256)\r\n    {\r\n        return (\r\n        tokens[tokenId].name,\r\n        tokens[tokenId].dna,\r\n        tokens[tokenId].difficulty\r\n        );\r\n    }\r\n}",
  "sourcePath": "C:\\Users\\morgan\\WebstormProjects\\six-bit\\contracts\\Gashapon.sol",
  "compiler": {
    "name": "solc",
    "version": "0.6.6+commit.6c089d02.Emscripten.clang"
  },
  "schemaVersion": "3.3.4",
  "updatedAt": "2021-03-22T23:57:42.398Z",
  "networkType": "ethereum",
  "devdoc": {
    "methods": {
      "approve(address,uint256)": {
        "details": "See {IERC721-approve}."
      },
      "balanceOf(address)": {
        "details": "See {IERC721-balanceOf}."
      },
      "baseURI()": {
        "details": "Returns the base URI set via {_setBaseURI}. This will be automatically added as a prefix in {tokenURI} to each token's URI, or to the token ID if no specific URI is set for that token ID."
      },
      "getApproved(uint256)": {
        "details": "See {IERC721-getApproved}."
      },
      "isApprovedForAll(address,address)": {
        "details": "See {IERC721-isApprovedForAll}."
      },
      "name()": {
        "details": "See {IERC721Metadata-name}."
      },
      "owner()": {
        "details": "Returns the address of the current owner."
      },
      "ownerOf(uint256)": {
        "details": "See {IERC721-ownerOf}."
      },
      "renounceOwnership()": {
        "details": "Leaves the contract without owner. It will not be possible to call `onlyOwner` functions anymore. Can only be called by the current owner.     * NOTE: Renouncing ownership will leave the contract without an owner, thereby removing any functionality that is only available to the owner."
      },
      "safeTransferFrom(address,address,uint256)": {
        "details": "See {IERC721-safeTransferFrom}."
      },
      "safeTransferFrom(address,address,uint256,bytes)": {
        "details": "See {IERC721-safeTransferFrom}."
      },
      "setApprovalForAll(address,bool)": {
        "details": "See {IERC721-setApprovalForAll}."
      },
      "supportsInterface(bytes4)": {
        "details": "See {IERC165-supportsInterface}.     * Time complexity O(1), guaranteed to always use less than 30 000 gas."
      },
      "symbol()": {
        "details": "See {IERC721Metadata-symbol}."
      },
      "tokenByIndex(uint256)": {
        "details": "See {IERC721Enumerable-tokenByIndex}."
      },
      "tokenOfOwnerByIndex(address,uint256)": {
        "details": "See {IERC721Enumerable-tokenOfOwnerByIndex}."
      },
      "tokenURI(uint256)": {
        "details": "See {IERC721Metadata-tokenURI}."
      },
      "totalSupply()": {
        "details": "See {IERC721Enumerable-totalSupply}."
      },
      "transferFrom(address,address,uint256)": {
        "details": "See {IERC721-transferFrom}."
      },
      "transferOwnership(address)": {
        "details": "Transfers ownership of the contract to a new account (`newOwner`). Can only be called by the current owner."
      }
    }
  },
  "userdoc": {
    "methods": {}
  }
}