{
  "contractName": "GashaponFactory",
  "abi": [
    {
      "anonymous": false,
      "inputs": [
        {
          "indexed": true,
          "internalType": "address",
          "name": "_from",
          "type": "address"
        },
        {
          "indexed": true,
          "internalType": "address",
          "name": "_child",
          "type": "address"
        }
      ],
      "name": "GashaponCreated",
      "type": "event"
    },
    {
      "inputs": [
        {
          "internalType": "uint256",
          "name": "",
          "type": "uint256"
        }
      ],
      "name": "children",
      "outputs": [
        {
          "internalType": "contract Gashapon",
          "name": "",
          "type": "address"
        }
      ],
      "stateMutability": "view",
      "type": "function",
      "constant": true
    },
    {
      "inputs": [
        {
          "internalType": "string",
          "name": "_tokenName",
          "type": "string"
        },
        {
          "internalType": "string",
          "name": "_tokenSymbol",
          "type": "string"
        },
        {
          "internalType": "uint8",
          "name": "_minimumDifficultyBits",
          "type": "uint8"
        },
        {
          "internalType": "uint8",
          "name": "_dnaBitLength",
          "type": "uint8"
        },
        {
          "internalType": "uint256",
          "name": "_firstPrice",
          "type": "uint256"
        },
        {
          "internalType": "uint256",
          "name": "_priceIncrement",
          "type": "uint256"
        },
        {
          "internalType": "uint8",
          "name": "_burnRefundPercentage",
          "type": "uint8"
        },
        {
          "internalType": "string",
          "name": "_cidRoot",
          "type": "string"
        }
      ],
      "name": "createChild",
      "outputs": [],
      "stateMutability": "nonpayable",
      "type": "function"
    },
    {
      "inputs": [],
      "name": "getChildren",
      "outputs": [
        {
          "internalType": "contract Gashapon[]",
          "name": "_children",
          "type": "address[]"
        }
      ],
      "stateMutability": "view",
      "type": "function",
      "constant": true
    }
  ],
  "bytecode": "0x608060405234801561001057600080fd5b50615843806100206000396000f3fe608060405234801561001057600080fd5b50600436106100415760003560e01c80634892e8e8146100465780637002ce42146100a5578063bd4304c314610113575b600080fd5b61004e610272565b6040518080602001828103825283818151815260200191508051906020019060200280838360005b83811015610091578082015181840152602081019050610076565b505050509050019250505060405180910390f35b6100d1600480360360208110156100bb57600080fd5b810190808035906020019092919050505061036f565b604051808273ffffffffffffffffffffffffffffffffffffffff1673ffffffffffffffffffffffffffffffffffffffff16815260200191505060405180910390f35b610270600480360361010081101561012a57600080fd5b810190808035906020019064010000000081111561014757600080fd5b82018360208201111561015957600080fd5b8035906020019184600183028401116401000000008311171561017b57600080fd5b90919293919293908035906020019064010000000081111561019c57600080fd5b8201836020820111156101ae57600080fd5b803590602001918460018302840111640100000000831117156101d057600080fd5b9091929391929390803560ff169060200190929190803560ff1690602001909291908035906020019092919080359060200190929190803560ff1690602001909291908035906020019064010000000081111561022c57600080fd5b82018360208201111561023e57600080fd5b8035906020019184600183028401116401000000008311171561026057600080fd5b90919293919293905050506103ab565b005b606060008054905067ffffffffffffffff8111801561029057600080fd5b506040519080825280602002602001820160405280156102bf5781602001602082028036833780820191505090505b509050600080600090505b60008054905081101561036a57600081815481106102e457fe5b9060005260206000200160009054906101000a900473ffffffffffffffffffffffffffffffffffffffff1683838151811061031b57fe5b602002602001019073ffffffffffffffffffffffffffffffffffffffff16908173ffffffffffffffffffffffffffffffffffffffff1681525050818060010192505080806001019150506102ca565b505090565b6000818154811061037c57fe5b906000526020600020016000915054906101000a900473ffffffffffffffffffffffffffffffffffffffff1681565b60008b8b8b8b8b8b8b8b8b8b8b6040516103c49061057c565b8080602001806020018a60ff1660ff1681526020018960ff1660ff1681526020018881526020018781526020018660ff1660ff1681526020018060200184810384528f8f82818152602001925080828437600081840152601f19601f82011690508083019250505084810383528d8d82818152602001925080828437600081840152601f19601f8201169050808301925050508481038252868682818152602001925080828437600081840152601f19601f8201169050808301925050509e505050505050505050505050505050604051809103906000f0801580156104ae573d6000803e3d6000fd5b5090506000819080600181540180825580915050600190039060005260206000200160009091909190916101000a81548173ffffffffffffffffffffffffffffffffffffffff021916908373ffffffffffffffffffffffffffffffffffffffff1602179055508073ffffffffffffffffffffffffffffffffffffffff163373ffffffffffffffffffffffffffffffffffffffff167f40aebbd6f8e427af688af8e15c9a8260c03f23aa1a02f4b1d23c93dd82bf546d60405160405180910390a3505050505050505050505050565b615283806200058b8339019056fe60806040523480156200001157600080fd5b50604051620052833803806200528383398181016040526101008110156200003857600080fd5b81019080805160405193929190846401000000008211156200005957600080fd5b838201915060208201858111156200007057600080fd5b82518660018202830111640100000000821117156200008e57600080fd5b8083526020830192505050908051906020019080838360005b83811015620000c4578082015181840152602081019050620000a7565b50505050905090810190601f168015620000f25780820380516001836020036101000a031916815260200191505b50604052602001805160405193929190846401000000008211156200011657600080fd5b838201915060208201858111156200012d57600080fd5b82518660018202830111640100000000821117156200014b57600080fd5b8083526020830192505050908051906020019080838360005b838110156200018157808201518184015260208101905062000164565b50505050905090810190601f168015620001af5780820380516001836020036101000a031916815260200191505b506040526020018051906020019092919080519060200190929190805190602001909291908051906020019092919080519060200190929190805160405193929190846401000000008211156200020557600080fd5b838201915060208201858111156200021c57600080fd5b82518660018202830111640100000000821117156200023a57600080fd5b8083526020830192505050908051906020019080838360005b838110156200027057808201518184015260208101905062000253565b50505050905090810190601f1680156200029e5780820380516001836020036101000a031916815260200191505b506040525050508787620002bf6301ffc9a760e01b6200050b60201b60201c565b8160069080519060200190620002d79291906200061c565b508060079080519060200190620002f09291906200061c565b50620003096380ac58cd60e01b6200050b60201b60201c565b62000321635b5e139f60e01b6200050b60201b60201c565b6200033963780e9d6360e01b6200050b60201b60201c565b505060006200034d6200061460201b60201c565b905080600a60006101000a81548173ffffffffffffffffffffffffffffffffffffffff021916908373ffffffffffffffffffffffffffffffffffffffff1602179055508073ffffffffffffffffffffffffffffffffffffffff16600073ffffffffffffffffffffffffffffffffffffffff167f8be0079c531659141344cd1fd0a4f28419497f9722a3daafe3b4186f6b6457e060405160405180910390a35060648260ff1611156200044b576040517f08c379a0000000000000000000000000000000000000000000000000000000008152600401808060200182810382526032815260200180620052516032913960400191505060405180910390fd5b60018660ff166101000360020a03600b8190555084600c60006101000a81548160ff021916908360ff16021790555083600e8190555082600f8190555081601060006101000a81548160ff021916908360ff16021790555080600d9080519060200190620004bb9291906200061c565b5033601060016101000a81548173ffffffffffffffffffffffffffffffffffffffff021916908373ffffffffffffffffffffffffffffffffffffffff1602179055505050505050505050620006cb565b63ffffffff60e01b817bffffffffffffffffffffffffffffffffffffffffffffffffffffffff19161415620005a8576040517f08c379a000000000000000000000000000000000000000000000000000000000815260040180806020018281038252601c8152602001807f4552433136353a20696e76616c696420696e746572666163652069640000000081525060200191505060405180910390fd5b6001600080837bffffffffffffffffffffffffffffffffffffffffffffffffffffffff19167bffffffffffffffffffffffffffffffffffffffffffffffffffffffff1916815260200190815260200160002060006101000a81548160ff02191690831515021790555050565b600033905090565b828054600181600116156101000203166002900490600052602060002090601f016020900481019282601f106200065f57805160ff191683800117855562000690565b8280016001018555821562000690579182015b828111156200068f57825182559160200191906001019062000672565b5b5090506200069f9190620006a3565b5090565b620006c891905b80821115620006c4576000816000905550600101620006aa565b5090565b90565b614b7680620006db6000396000f3fe6080604052600436106102195760003560e01c806363d35c9011610123578063a22e4faa116100ab578063cc637afe1161006f578063cc637afe14611071578063d7eb3f3a14611151578063de933e4d146111a8578063e985e9c5146111d9578063f2fde38b1461126257610219565b8063a22e4faa14610e04578063a71e2b4914610e55578063a7f93ebd14610e80578063b88d4fde14610eab578063c87b56dd14610fbd57610219565b80637f5a6521116100f25780637f5a652114610bcd578063837dd43114610bfe5780638da5cb5b14610cc057806395d89b4114610d17578063a22cb46514610da757610219565b806363d35c9014610a315780636c0360eb14610ac157806370a0823114610b51578063715018a614610bb657610219565b80632825df7b116101a657806342842e0e1161017557806342842e0e146107ef57806342966c681461086a5780634f64b2be146108a55780634f6ccce7146109675780636352211e146109b657610219565b80632825df7b146105455780632f745c59146106a157806339a3da4a146107105780633bb3a24d1461073b57610219565b8063095ea7b3116101ed578063095ea7b3146103ee57806318160ddd146104495780631ae249b31461047457806323b872dd1461049f578063280d62ac1461051a57610219565b8062e9f7391461021e57806301ffc9a71461027157806306fdde03146102e3578063081812fc14610373575b600080fd5b34801561022a57600080fd5b506102576004803603602081101561024157600080fd5b81019080803590602001909291905050506112b3565b604051808215151515815260200191505060405180910390f35b34801561027d57600080fd5b506102c96004803603602081101561029457600080fd5b8101908080357bffffffffffffffffffffffffffffffffffffffffffffffffffffffff191690602001909291905050506112d3565b604051808215151515815260200191505060405180910390f35b3480156102ef57600080fd5b506102f861133a565b6040518080602001828103825283818151815260200191508051906020019080838360005b8381101561033857808201518184015260208101905061031d565b50505050905090810190601f1680156103655780820380516001836020036101000a031916815260200191505b509250505060405180910390f35b34801561037f57600080fd5b506103ac6004803603602081101561039657600080fd5b81019080803590602001909291905050506113dc565b604051808273ffffffffffffffffffffffffffffffffffffffff1673ffffffffffffffffffffffffffffffffffffffff16815260200191505060405180910390f35b3480156103fa57600080fd5b506104476004803603604081101561041157600080fd5b81019080803573ffffffffffffffffffffffffffffffffffffffff16906020019092919080359060200190929190505050611477565b005b34801561045557600080fd5b5061045e6115bb565b6040518082815260200191505060405180910390f35b34801561048057600080fd5b506104896115cc565b6040518082815260200191505060405180910390f35b3480156104ab57600080fd5b50610518600480360360608110156104c257600080fd5b81019080803573ffffffffffffffffffffffffffffffffffffffff169060200190929190803573ffffffffffffffffffffffffffffffffffffffff169060200190929190803590602001909291905050506115e1565b005b34801561052657600080fd5b5061052f611657565b6040518082815260200191505060405180910390f35b61069f6004803603606081101561055b57600080fd5b81019080803590602001909291908035906020019064010000000081111561058257600080fd5b82018360208201111561059457600080fd5b803590602001918460018302840111640100000000831117156105b657600080fd5b91908080601f016020809104026020016040519081016040528093929190818152602001838380828437600081840152601f19601f8201169050808301925050505050505091929192908035906020019064010000000081111561061957600080fd5b82018360208201111561062b57600080fd5b8035906020019184600183028401116401000000008311171561064d57600080fd5b91908080601f016020809104026020016040519081016040528093929190818152602001838380828437600081840152601f19601f82011690508083019250505050505050919291929050505061165d565b005b3480156106ad57600080fd5b506106fa600480360360408110156106c457600080fd5b81019080803573ffffffffffffffffffffffffffffffffffffffff16906020019092919080359060200190929190505050611b59565b6040518082815260200191505060405180910390f35b34801561071c57600080fd5b50610725611bb4565b6040518082815260200191505060405180910390f35b34801561074757600080fd5b506107746004803603602081101561075e57600080fd5b8101908080359060200190929190505050611bba565b6040518080602001828103825283818151815260200191508051906020019080838360005b838110156107b4578082015181840152602081019050610799565b50505050905090810190601f1680156107e15780820380516001836020036101000a031916815260200191505b509250505060405180910390f35b3480156107fb57600080fd5b506108686004803603606081101561081257600080fd5b81019080803573ffffffffffffffffffffffffffffffffffffffff169060200190929190803573ffffffffffffffffffffffffffffffffffffffff16906020019092919080359060200190929190505050611bcc565b005b34801561087657600080fd5b506108a36004803603602081101561088d57600080fd5b8101908080359060200190929190505050611bec565b005b3480156108b157600080fd5b506108de600480360360208110156108c857600080fd5b8101908080359060200190929190505050611ed1565b6040518084815260200180602001838152602001828103825284818151815260200191508051906020019080838360005b8381101561092a57808201518184015260208101905061090f565b50505050905090810190601f1680156109575780820380516001836020036101000a031916815260200191505b5094505050505060405180910390f35b34801561097357600080fd5b506109a06004803603602081101561098a57600080fd5b8101908080359060200190929190505050611fa0565b6040518082815260200191505060405180910390f35b3480156109c257600080fd5b506109ef600480360360208110156109d957600080fd5b8101908080359060200190929190505050611fc3565b604051808273ffffffffffffffffffffffffffffffffffffffff1673ffffffffffffffffffffffffffffffffffffffff16815260200191505060405180910390f35b348015610a3d57600080fd5b50610a46611ffa565b6040518080602001828103825283818151815260200191508051906020019080838360005b83811015610a86578082015181840152602081019050610a6b565b50505050905090810190601f168015610ab35780820380516001836020036101000a031916815260200191505b509250505060405180910390f35b348015610acd57600080fd5b50610ad6612098565b6040518080602001828103825283818151815260200191508051906020019080838360005b83811015610b16578082015181840152602081019050610afb565b50505050905090810190601f168015610b435780820380516001836020036101000a031916815260200191505b509250505060405180910390f35b348015610b5d57600080fd5b50610ba060048036036020811015610b7457600080fd5b81019080803573ffffffffffffffffffffffffffffffffffffffff16906020019092919050505061213a565b6040518082815260200191505060405180910390f35b348015610bc257600080fd5b50610bcb61220f565b005b348015610bd957600080fd5b50610be261237f565b604051808260ff1660ff16815260200191505060405180910390f35b348015610c0a57600080fd5b50610c3760048036036020811015610c2157600080fd5b8101908080359060200190929190505050612392565b6040518080602001848152602001838152602001828103825285818151815260200191508051906020019080838360005b83811015610c83578082015181840152602081019050610c68565b50505050905090810190601f168015610cb05780820380516001836020036101000a031916815260200191505b5094505050505060405180910390f35b348015610ccc57600080fd5b50610cd56124b5565b604051808273ffffffffffffffffffffffffffffffffffffffff1673ffffffffffffffffffffffffffffffffffffffff16815260200191505060405180910390f35b348015610d2357600080fd5b50610d2c6124df565b6040518080602001828103825283818151815260200191508051906020019080838360005b83811015610d6c578082015181840152602081019050610d51565b50505050905090810190601f168015610d995780820380516001836020036101000a031916815260200191505b509250505060405180910390f35b348015610db357600080fd5b50610e0260048036036040811015610dca57600080fd5b81019080803573ffffffffffffffffffffffffffffffffffffffff169060200190929190803515159060200190929190505050612581565b005b348015610e1057600080fd5b50610e5360048036036020811015610e2757600080fd5b81019080803573ffffffffffffffffffffffffffffffffffffffff169060200190929190505050612739565b005b348015610e6157600080fd5b50610e6a61282c565b6040518082815260200191505060405180910390f35b348015610e8c57600080fd5b50610e95612832565b6040518082815260200191505060405180910390f35b348015610eb757600080fd5b50610fbb60048036036080811015610ece57600080fd5b81019080803573ffffffffffffffffffffffffffffffffffffffff169060200190929190803573ffffffffffffffffffffffffffffffffffffffff1690602001909291908035906020019092919080359060200190640100000000811115610f3557600080fd5b820183602082011115610f4757600080fd5b80359060200191846001830284011164010000000083111715610f6957600080fd5b91908080601f016020809104026020016040519081016040528093929190818152602001838380828437600081840152601f19601f820116905080830192505050505050509192919290505050612847565b005b348015610fc957600080fd5b50610ff660048036036020811015610fe057600080fd5b81019080803590602001909291905050506128bf565b6040518080602001828103825283818151815260200191508051906020019080838360005b8381101561103657808201518184015260208101905061101b565b50505050905090810190601f1680156110635780820380516001836020036101000a031916815260200191505b509250505060405180910390f35b34801561107d57600080fd5b506111376004803603602081101561109457600080fd5b81019080803590602001906401000000008111156110b157600080fd5b8201836020820111156110c357600080fd5b803590602001918460018302840111640100000000831117156110e557600080fd5b91908080601f016020809104026020016040519081016040528093929190818152602001838380828437600081840152601f19601f820116905080830192505050505050509192919290505050612b90565b604051808215151515815260200191505060405180910390f35b34801561115d57600080fd5b50611166612c06565b604051808273ffffffffffffffffffffffffffffffffffffffff1673ffffffffffffffffffffffffffffffffffffffff16815260200191505060405180910390f35b3480156111b457600080fd5b506111bd612c2c565b604051808260ff1660ff16815260200191505060405180910390f35b3480156111e557600080fd5b50611248600480360360408110156111fc57600080fd5b81019080803573ffffffffffffffffffffffffffffffffffffffff169060200190929190803573ffffffffffffffffffffffffffffffffffffffff169060200190929190505050612c3f565b604051808215151515815260200191505060405180910390f35b34801561126e57600080fd5b506112b16004803603602081101561128557600080fd5b81019080803573ffffffffffffffffffffffffffffffffffffffff169060200190929190505050612cd3565b005b600080601160008481526020019081526020016000205414159050919050565b6000806000837bffffffffffffffffffffffffffffffffffffffffffffffffffffffff19167bffffffffffffffffffffffffffffffffffffffffffffffffffffffff1916815260200190815260200160002060009054906101000a900460ff169050919050565b606060068054600181600116156101000203166002900480601f0160208091040260200160405190810160405280929190818152602001828054600181600116156101000203166002900480156113d25780601f106113a7576101008083540402835291602001916113d2565b820191906000526020600020905b8154815290600101906020018083116113b557829003601f168201915b5050505050905090565b60006113e782612ec8565b61143c576040517f08c379a000000000000000000000000000000000000000000000000000000000815260040180806020018281038252602c815260200180614a3f602c913960400191505060405180910390fd5b6004600083815260200190815260200160002060009054906101000a900473ffffffffffffffffffffffffffffffffffffffff169050919050565b600061148282611fc3565b90508073ffffffffffffffffffffffffffffffffffffffff168373ffffffffffffffffffffffffffffffffffffffff161415611509576040517f08c379a0000000000000000000000000000000000000000000000000000000008152600401808060200182810382526021815260200180614aef6021913960400191505060405180910390fd5b8073ffffffffffffffffffffffffffffffffffffffff16611528612ee5565b73ffffffffffffffffffffffffffffffffffffffff161480611557575061155681611551612ee5565b612c3f565b5b6115ac576040517f08c379a00000000000000000000000000000000000000000000000000000000081526004018080602001828103825260388152602001806149716038913960400191505060405180910390fd5b6115b68383612eed565b505050565b60006115c76002612fa6565b905090565b60006115dc601380549050612fbb565b905090565b6115f26115ec612ee5565b82613024565b611647576040517f08c379a0000000000000000000000000000000000000000000000000000000008152600401808060200182810382526031815260200180614b106031913960400191505060405180910390fd5b611652838383613118565b505050565b600f5481565b6000601380549050905060006116728261335b565b9050803410156116ea576040517f08c379a000000000000000000000000000000000000000000000000000000000815260040180806020018281038252600f8152602001807f6e6f7420656e6f7567682070616964000000000000000000000000000000000081525060200191505060405180910390fd5b6116f384612b90565b15611766576040517f08c379a00000000000000000000000000000000000000000000000000000000081526004018080602001828103825260138152602001807f6e616d65206d75737420626520756e697175650000000000000000000000000081525060200191505060405180910390fd5b6000336117716124df565b87604051602001808473ffffffffffffffffffffffffffffffffffffffff1673ffffffffffffffffffffffffffffffffffffffff1660601b815260140183805190602001908083835b602083106117dd57805182526020820191506020810190506020830392506117ba565b6001836020036101000a0380198251168184511680821785525050505050509050018281526020019350505050604051602081830303815290604052805190602001209050600b548160001c111561189d576040517f08c379a000000000000000000000000000000000000000000000000000000000815260040180806020018281038252600f8152602001807f6e6f7420656e6f75676820776f726b000000000000000000000000000000000081525060200191505060405180910390fd5b60006118b2833461338d90919063ffffffff16565b9050601060019054906101000a900473ffffffffffffffffffffffffffffffffffffffff1673ffffffffffffffffffffffffffffffffffffffff166108fc61191c6118fb6115cc565b61190e853461338d90919063ffffffff16565b61338d90919063ffffffff16565b9081150290604051600060405180830381858888f19350505050158015611947573d6000803e3d6000fd5b503373ffffffffffffffffffffffffffffffffffffffff166108fc829081150290604051600060405180830381858888f1935050505015801561198e573d6000803e3d6000fd5b506000600c60009054906101000a900460ff1660ff1660020a8360001c816119b257fe5b06905060008360001c600b54816119c557fe5b049050601360405180606001604052808481526020018a8152602001838152509080600181540180825580915050600190039060005260206000209060030201600090919091909150600082015181600001556020820151816001019080519060200190611a34929190614772565b50604082015181600201555050856012896040518082805190602001908083835b60208310611a785780518252602082019150602081019050602083039250611a55565b6001836020036101000a038019825116818451168082178552505050505050905001915050908152602001604051809103902081905550856011600084815260200190815260200160002081905550611ad13383613410565b611adb868861342e565b7ff371d67483809edbc84279729528d26a3e37ce67f1e3a911778dbf88ff927ca2858333604051808481526020018381526020018273ffffffffffffffffffffffffffffffffffffffff1673ffffffffffffffffffffffffffffffffffffffff168152602001935050505060405180910390a1505050505050505050565b6000611bac82600160008673ffffffffffffffffffffffffffffffffffffffff1673ffffffffffffffffffffffffffffffffffffffff1681526020019081526020016000206134b890919063ffffffff16565b905092915050565b600e5481565b6060611bc5826128bf565b9050919050565b611be783838360405180602001604052806000815250612847565b505050565b6000611bf782611fc3565b90508073ffffffffffffffffffffffffffffffffffffffff163373ffffffffffffffffffffffffffffffffffffffff1614611c3157600080fd5b6000611c41601380549050612fbb565b9050600060116000858152602001908152602001600020549050611c636147f2565b60138281548110611c7057fe5b906000526020600020906003020160405180606001604052908160008201548152602001600182018054600181600116156101000203166002900480601f016020809104026020016040519081016040528092919081815260200182805460018160011615610100020316600290048015611d2c5780601f10611d0157610100808354040283529160200191611d2c565b820191906000526020600020905b815481529060010190602001808311611d0f57829003601f168201915b505050505081526020016002820154815250509050601281602001516040518082805190602001908083835b60208310611d7b5780518252602082019150602081019050602083039250611d58565b6001836020036101000a038019825116818451168082178552505050505050905001915050908152602001604051809103902060009055601160008681526020019081526020016000206000905560138281548110611dd657fe5b9060005260206000209060030201600080820160009055600182016000611dfd9190614813565b60028201600090555050611e10856134d2565b3373ffffffffffffffffffffffffffffffffffffffff166108fc849081150290604051600060405180830381858888f19350505050158015611e56573d6000803e3d6000fd5b507fc9e664acae7915e5e50a15075448bd625dd198a1075499af683f6a323c7e4c2f838686604051808481526020018381526020018273ffffffffffffffffffffffffffffffffffffffff1673ffffffffffffffffffffffffffffffffffffffff168152602001935050505060405180910390a15050505050565b60138181548110611ede57fe5b9060005260206000209060030201600091509050806000015490806001018054600181600116156101000203166002900480601f016020809104026020016040519081016040528092919081815260200182805460018160011615610100020316600290048015611f905780601f10611f6557610100808354040283529160200191611f90565b820191906000526020600020905b815481529060010190602001808311611f7357829003601f168201915b5050505050908060020154905083565b600080611fb783600261360c90919063ffffffff16565b50905080915050919050565b6000611ff3826040518060600160405280602981526020016149d360299139600261363b9092919063ffffffff16565b9050919050565b600d8054600181600116156101000203166002900480601f0160208091040260200160405190810160405280929190818152602001828054600181600116156101000203166002900480156120905780601f1061206557610100808354040283529160200191612090565b820191906000526020600020905b81548152906001019060200180831161207357829003601f168201915b505050505081565b606060098054600181600116156101000203166002900480601f0160208091040260200160405190810160405280929190818152602001828054600181600116156101000203166002900480156121305780601f1061210557610100808354040283529160200191612130565b820191906000526020600020905b81548152906001019060200180831161211357829003601f168201915b5050505050905090565b60008073ffffffffffffffffffffffffffffffffffffffff168273ffffffffffffffffffffffffffffffffffffffff1614156121c1576040517f08c379a000000000000000000000000000000000000000000000000000000000815260040180806020018281038252602a8152602001806149a9602a913960400191505060405180910390fd5b612208600160008473ffffffffffffffffffffffffffffffffffffffff1673ffffffffffffffffffffffffffffffffffffffff16815260200190815260200160002061365a565b9050919050565b612217612ee5565b73ffffffffffffffffffffffffffffffffffffffff166122356124b5565b73ffffffffffffffffffffffffffffffffffffffff16146122be576040517f08c379a00000000000000000000000000000000000000000000000000000000081526004018080602001828103825260208152602001807f4f776e61626c653a2063616c6c6572206973206e6f7420746865206f776e657281525060200191505060405180910390fd5b600073ffffffffffffffffffffffffffffffffffffffff16600a60009054906101000a900473ffffffffffffffffffffffffffffffffffffffff1673ffffffffffffffffffffffffffffffffffffffff167f8be0079c531659141344cd1fd0a4f28419497f9722a3daafe3b4186f6b6457e060405160405180910390a36000600a60006101000a81548173ffffffffffffffffffffffffffffffffffffffff021916908373ffffffffffffffffffffffffffffffffffffffff160217905550565b601060009054906101000a900460ff1681565b6060600080600060116000868152602001908152602001600020549050601381815481106123bc57fe5b9060005260206000209060030201600101601382815481106123da57fe5b906000526020600020906003020160000154601383815481106123f957fe5b906000526020600020906003020160020154828054600181600116156101000203166002900480601f0160208091040260200160405190810160405280929190818152602001828054600181600116156101000203166002900480156124a05780601f10612475576101008083540402835291602001916124a0565b820191906000526020600020905b81548152906001019060200180831161248357829003601f168201915b50505050509250935093509350509193909250565b6000600a60009054906101000a900473ffffffffffffffffffffffffffffffffffffffff16905090565b606060078054600181600116156101000203166002900480601f0160208091040260200160405190810160405280929190818152602001828054600181600116156101000203166002900480156125775780601f1061254c57610100808354040283529160200191612577565b820191906000526020600020905b81548152906001019060200180831161255a57829003601f168201915b5050505050905090565b612589612ee5565b73ffffffffffffffffffffffffffffffffffffffff168273ffffffffffffffffffffffffffffffffffffffff16141561262a576040517f08c379a00000000000000000000000000000000000000000000000000000000081526004018080602001828103825260198152602001807f4552433732313a20617070726f766520746f2063616c6c65720000000000000081525060200191505060405180910390fd5b8060056000612637612ee5565b73ffffffffffffffffffffffffffffffffffffffff1673ffffffffffffffffffffffffffffffffffffffff16815260200190815260200160002060008473ffffffffffffffffffffffffffffffffffffffff1673ffffffffffffffffffffffffffffffffffffffff16815260200190815260200160002060006101000a81548160ff0219169083151502179055508173ffffffffffffffffffffffffffffffffffffffff166126e4612ee5565b73ffffffffffffffffffffffffffffffffffffffff167f17307eab39ab6107e8899845ad3d59bd9653f200f220920489ca2b5937696c3183604051808215151515815260200191505060405180910390a35050565b612741612ee5565b73ffffffffffffffffffffffffffffffffffffffff1661275f6124b5565b73ffffffffffffffffffffffffffffffffffffffff16146127e8576040517f08c379a00000000000000000000000000000000000000000000000000000000081526004018080602001828103825260208152602001807f4f776e61626c653a2063616c6c6572206973206e6f7420746865206f776e657281525060200191505060405180910390fd5b80601060016101000a81548173ffffffffffffffffffffffffffffffffffffffff021916908373ffffffffffffffffffffffffffffffffffffffff16021790555050565b600b5481565b600061284260138054905061335b565b905090565b612858612852612ee5565b83613024565b6128ad576040517f08c379a0000000000000000000000000000000000000000000000000000000008152600401808060200182810382526031815260200180614b106031913960400191505060405180910390fd5b6128b98484848461366f565b50505050565b60606128ca82612ec8565b61291f576040517f08c379a000000000000000000000000000000000000000000000000000000000815260040180806020018281038252602f815260200180614ac0602f913960400191505060405180910390fd5b6060600860008481526020019081526020016000208054600181600116156101000203166002900480601f0160208091040260200160405190810160405280929190818152602001828054600181600116156101000203166002900480156129c85780601f1061299d576101008083540402835291602001916129c8565b820191906000526020600020905b8154815290600101906020018083116129ab57829003601f168201915b5050505050905060606129d9612098565b90506000815114156129ef578192505050612b8b565b600082511115612ac05780826040516020018083805190602001908083835b60208310612a315780518252602082019150602081019050602083039250612a0e565b6001836020036101000a03801982511681845116808217855250505050505090500182805190602001908083835b60208310612a825780518252602082019150602081019050602083039250612a5f565b6001836020036101000a0380198251168184511680821785525050505050509050019250505060405160208183030381529060405292505050612b8b565b80612aca856136e1565b6040516020018083805190602001908083835b60208310612b005780518252602082019150602081019050602083039250612add565b6001836020036101000a03801982511681845116808217855250505050505090500182805190602001908083835b60208310612b515780518252602082019150602081019050602083039250612b2e565b6001836020036101000a03801982511681845116808217855250505050505090500192505050604051602081830303815290604052925050505b919050565b6000806012836040518082805190602001908083835b60208310612bc95780518252602082019150602081019050602083039250612ba6565b6001836020036101000a03801982511681845116808217855250505050505090500191505090815260200160405180910390205414159050919050565b601060019054906101000a900473ffffffffffffffffffffffffffffffffffffffff1681565b600c60009054906101000a900460ff1681565b6000600560008473ffffffffffffffffffffffffffffffffffffffff1673ffffffffffffffffffffffffffffffffffffffff16815260200190815260200160002060008373ffffffffffffffffffffffffffffffffffffffff1673ffffffffffffffffffffffffffffffffffffffff16815260200190815260200160002060009054906101000a900460ff16905092915050565b612cdb612ee5565b73ffffffffffffffffffffffffffffffffffffffff16612cf96124b5565b73ffffffffffffffffffffffffffffffffffffffff1614612d82576040517f08c379a00000000000000000000000000000000000000000000000000000000081526004018080602001828103825260208152602001807f4f776e61626c653a2063616c6c6572206973206e6f7420746865206f776e657281525060200191505060405180910390fd5b600073ffffffffffffffffffffffffffffffffffffffff168173ffffffffffffffffffffffffffffffffffffffff161415612e08576040517f08c379a00000000000000000000000000000000000000000000000000000000081526004018080602001828103825260268152602001806148d56026913960400191505060405180910390fd5b8073ffffffffffffffffffffffffffffffffffffffff16600a60009054906101000a900473ffffffffffffffffffffffffffffffffffffffff1673ffffffffffffffffffffffffffffffffffffffff167f8be0079c531659141344cd1fd0a4f28419497f9722a3daafe3b4186f6b6457e060405160405180910390a380600a60006101000a81548173ffffffffffffffffffffffffffffffffffffffff021916908373ffffffffffffffffffffffffffffffffffffffff16021790555050565b6000612ede82600261382890919063ffffffff16565b9050919050565b600033905090565b816004600083815260200190815260200160002060006101000a81548173ffffffffffffffffffffffffffffffffffffffff021916908373ffffffffffffffffffffffffffffffffffffffff160217905550808273ffffffffffffffffffffffffffffffffffffffff16612f6083611fc3565b73ffffffffffffffffffffffffffffffffffffffff167f8c5be1e5ebec7d5bd14f71427d1e84f3dd0314c0f7b2291e5b200ac8c7c3b92560405160405180910390a45050565b6000612fb482600001613842565b9050919050565b600061301d606461300f601060009054906101000a900460ff1660ff16613001612ff087600f5461385390919063ffffffff16565b600e546138d990919063ffffffff16565b61385390919063ffffffff16565b61396190919063ffffffff16565b9050919050565b600061302f82612ec8565b613084576040517f08c379a000000000000000000000000000000000000000000000000000000000815260040180806020018281038252602c815260200180614945602c913960400191505060405180910390fd5b600061308f83611fc3565b90508073ffffffffffffffffffffffffffffffffffffffff168473ffffffffffffffffffffffffffffffffffffffff1614806130fe57508373ffffffffffffffffffffffffffffffffffffffff166130e6846113dc565b73ffffffffffffffffffffffffffffffffffffffff16145b8061310f575061310e8185612c3f565b5b91505092915050565b8273ffffffffffffffffffffffffffffffffffffffff1661313882611fc3565b73ffffffffffffffffffffffffffffffffffffffff16146131a4576040517f08c379a0000000000000000000000000000000000000000000000000000000008152600401808060200182810382526029815260200180614a976029913960400191505060405180910390fd5b600073ffffffffffffffffffffffffffffffffffffffff168273ffffffffffffffffffffffffffffffffffffffff16141561322a576040517f08c379a00000000000000000000000000000000000000000000000000000000081526004018080602001828103825260248152602001806148fb6024913960400191505060405180910390fd5b6132358383836139ea565b613240600082612eed565b61329181600160008673ffffffffffffffffffffffffffffffffffffffff1673ffffffffffffffffffffffffffffffffffffffff1681526020019081526020016000206139ef90919063ffffffff16565b506132e381600160008573ffffffffffffffffffffffffffffffffffffffff1673ffffffffffffffffffffffffffffffffffffffff168152602001908152602001600020613a0990919063ffffffff16565b506132fa81836002613a239092919063ffffffff16565b50808273ffffffffffffffffffffffffffffffffffffffff168473ffffffffffffffffffffffffffffffffffffffff167fddf252ad1be2c89b69c2b068fc378daa952ba7f163c4a11628f55a4df523b3ef60405160405180910390a4505050565b600061338661337583600f5461385390919063ffffffff16565b600e546138d990919063ffffffff16565b9050919050565b600082821115613405576040517f08c379a000000000000000000000000000000000000000000000000000000000815260040180806020018281038252601e8152602001807f536166654d6174683a207375627472616374696f6e206f766572666c6f77000081525060200191505060405180910390fd5b818303905092915050565b61342a828260405180602001604052806000815250613a58565b5050565b61343782612ec8565b61348c576040517f08c379a000000000000000000000000000000000000000000000000000000000815260040180806020018281038252602c815260200180614a6b602c913960400191505060405180910390fd5b806008600084815260200190815260200160002090805190602001906134b3929190614772565b505050565b60006134c78360000183613ac9565b60001c905092915050565b60006134dd82611fc3565b90506134eb816000846139ea565b6134f6600083612eed565b60006008600084815260200190815260200160002080546001816001161561010002031660029004905014613545576008600083815260200190815260200160002060006135449190614813565b5b61359682600160008473ffffffffffffffffffffffffffffffffffffffff1673ffffffffffffffffffffffffffffffffffffffff1681526020019081526020016000206139ef90919063ffffffff16565b506135ab826002613b4c90919063ffffffff16565b5081600073ffffffffffffffffffffffffffffffffffffffff168273ffffffffffffffffffffffffffffffffffffffff167fddf252ad1be2c89b69c2b068fc378daa952ba7f163c4a11628f55a4df523b3ef60405160405180910390a45050565b60008060008061361f8660000186613b66565b915091508160001c8160001c8090509350935050509250929050565b600061364e846000018460001b84613bff565b60001c90509392505050565b600061366882600001613cf5565b9050919050565b61367a848484613118565b61368684848484613d06565b6136db576040517f08c379a00000000000000000000000000000000000000000000000000000000081526004018080602001828103825260328152602001806148a36032913960400191505060405180910390fd5b50505050565b60606000821415613729576040518060400160405280600181526020017f30000000000000000000000000000000000000000000000000000000000000008152509050613823565b600082905060005b60008214613753578080600101915050600a828161374b57fe5b049150613731565b60608167ffffffffffffffff8111801561376c57600080fd5b506040519080825280601f01601f19166020018201604052801561379f5781602001600182028036833780820191505090505b50905060006001830390508593505b6000841461381b57600a84816137c057fe5b0660300160f81b828280600190039350815181106137da57fe5b60200101907effffffffffffffffffffffffffffffffffffffffffffffffffffffffffffff1916908160001a905350600a848161381357fe5b0493506137ae565b819450505050505b919050565b600061383a836000018360001b613f4b565b905092915050565b600081600001805490509050919050565b60008083141561386657600090506138d3565b600082840290508284828161387757fe5b04146138ce576040517f08c379a0000000000000000000000000000000000000000000000000000000008152600401808060200182810382526021815260200180614a1e6021913960400191505060405180910390fd5b809150505b92915050565b600080828401905083811015613957576040517f08c379a000000000000000000000000000000000000000000000000000000000815260040180806020018281038252601b8152602001807f536166654d6174683a206164646974696f6e206f766572666c6f77000000000081525060200191505060405180910390fd5b8091505092915050565b60008082116139d8576040517f08c379a000000000000000000000000000000000000000000000000000000000815260040180806020018281038252601a8152602001807f536166654d6174683a206469766973696f6e206279207a65726f00000000000081525060200191505060405180910390fd5b8183816139e157fe5b04905092915050565b505050565b6000613a01836000018360001b613f6e565b905092915050565b6000613a1b836000018360001b614056565b905092915050565b6000613a4f846000018460001b8473ffffffffffffffffffffffffffffffffffffffff1660001b6140c6565b90509392505050565b613a6283836141a2565b613a6f6000848484613d06565b613ac4576040517f08c379a00000000000000000000000000000000000000000000000000000000081526004018080602001828103825260328152602001806148a36032913960400191505060405180910390fd5b505050565b600081836000018054905011613b2a576040517f08c379a00000000000000000000000000000000000000000000000000000000081526004018080602001828103825260228152602001806148816022913960400191505060405180910390fd5b826000018281548110613b3957fe5b9060005260206000200154905092915050565b6000613b5e836000018360001b614396565b905092915050565b60008082846000018054905011613bc8576040517f08c379a00000000000000000000000000000000000000000000000000000000081526004018080602001828103825260228152602001806149fc6022913960400191505060405180910390fd5b6000846000018481548110613bd957fe5b906000526020600020906002020190508060000154816001015492509250509250929050565b60008084600101600085815260200190815260200160002054905060008114158390613cc6576040517f08c379a00000000000000000000000000000000000000000000000000000000081526004018080602001828103825283818151815260200191508051906020019080838360005b83811015613c8b578082015181840152602081019050613c70565b50505050905090810190601f168015613cb85780820380516001836020036101000a031916815260200191505b509250505060405180910390fd5b50846000016001820381548110613cd957fe5b9060005260206000209060020201600101549150509392505050565b600081600001805490509050919050565b6000613d278473ffffffffffffffffffffffffffffffffffffffff166144af565b613d345760019050613f43565b6060613eca63150b7a0260e01b613d49612ee5565b888787604051602401808573ffffffffffffffffffffffffffffffffffffffff1673ffffffffffffffffffffffffffffffffffffffff1681526020018473ffffffffffffffffffffffffffffffffffffffff1673ffffffffffffffffffffffffffffffffffffffff16815260200183815260200180602001828103825283818151815260200191508051906020019080838360005b83811015613df9578082015181840152602081019050613dde565b50505050905090810190601f168015613e265780820380516001836020036101000a031916815260200191505b5095505050505050604051602081830303815290604052907bffffffffffffffffffffffffffffffffffffffffffffffffffffffff19166020820180517bffffffffffffffffffffffffffffffffffffffffffffffffffffffff83818316178352505050506040518060600160405280603281526020016148a3603291398773ffffffffffffffffffffffffffffffffffffffff166144c29092919063ffffffff16565b90506000818060200190516020811015613ee357600080fd5b8101908080519060200190929190505050905063150b7a0260e01b7bffffffffffffffffffffffffffffffffffffffffffffffffffffffff1916817bffffffffffffffffffffffffffffffffffffffffffffffffffffffff191614925050505b949350505050565b600080836001016000848152602001908152602001600020541415905092915050565b6000808360010160008481526020019081526020016000205490506000811461404a5760006001820390506000600186600001805490500390506000866000018281548110613fb957fe5b9060005260206000200154905080876000018481548110613fd657fe5b906000526020600020018190555060018301876001016000838152602001908152602001600020819055508660000180548061400e57fe5b60019003818190600052602060002001600090559055866001016000878152602001908152602001600020600090556001945050505050614050565b60009150505b92915050565b600061406283836144da565b6140bb5782600001829080600181540180825580915050600190039060005260206000200160009091909190915055826000018054905083600101600084815260200190815260200160002081905550600190506140c0565b600090505b92915050565b600080846001016000858152602001908152602001600020549050600081141561416d5784600001604051806040016040528086815260200185815250908060018154018082558091505060019003906000526020600020906002020160009091909190915060008201518160000155602082015181600101555050846000018054905085600101600086815260200190815260200160002081905550600191505061419b565b8285600001600183038154811061418057fe5b90600052602060002090600202016001018190555060009150505b9392505050565b600073ffffffffffffffffffffffffffffffffffffffff168273ffffffffffffffffffffffffffffffffffffffff161415614245576040517f08c379a00000000000000000000000000000000000000000000000000000000081526004018080602001828103825260208152602001807f4552433732313a206d696e7420746f20746865207a65726f206164647265737381525060200191505060405180910390fd5b61424e81612ec8565b156142c1576040517f08c379a000000000000000000000000000000000000000000000000000000000815260040180806020018281038252601c8152602001807f4552433732313a20746f6b656e20616c7265616479206d696e7465640000000081525060200191505060405180910390fd5b6142cd600083836139ea565b61431e81600160008573ffffffffffffffffffffffffffffffffffffffff1673ffffffffffffffffffffffffffffffffffffffff168152602001908152602001600020613a0990919063ffffffff16565b5061433581836002613a239092919063ffffffff16565b50808273ffffffffffffffffffffffffffffffffffffffff16600073ffffffffffffffffffffffffffffffffffffffff167fddf252ad1be2c89b69c2b068fc378daa952ba7f163c4a11628f55a4df523b3ef60405160405180910390a45050565b600080836001016000848152602001908152602001600020549050600081146144a357600060018203905060006001866000018054905003905060008660000182815481106143e157fe5b906000526020600020906002020190508087600001848154811061440157fe5b906000526020600020906002020160008201548160000155600182015481600101559050506001830187600101600083600001548152602001908152602001600020819055508660000180548061445457fe5b60019003818190600052602060002090600202016000808201600090556001820160009055505090558660010160008781526020019081526020016000206000905560019450505050506144a9565b60009150505b92915050565b600080823b905060008111915050919050565b60606144d184846000856144fd565b90509392505050565b600080836001016000848152602001908152602001600020541415905092915050565b606082471015614558576040517f08c379a000000000000000000000000000000000000000000000000000000000815260040180806020018281038252602681526020018061491f6026913960400191505060405180910390fd5b614561856144af565b6145d3576040517f08c379a000000000000000000000000000000000000000000000000000000000815260040180806020018281038252601d8152602001807f416464726573733a2063616c6c20746f206e6f6e2d636f6e747261637400000081525060200191505060405180910390fd5b600060608673ffffffffffffffffffffffffffffffffffffffff1685876040518082805190602001908083835b602083106146235780518252602082019150602081019050602083039250614600565b6001836020036101000a03801982511681845116808217855250505050505090500191505060006040518083038185875af1925050503d8060008114614685576040519150601f19603f3d011682016040523d82523d6000602084013e61468a565b606091505b509150915061469a8282866146a6565b92505050949350505050565b606083156146b65782905061476b565b6000835111156146c95782518084602001fd5b816040517f08c379a00000000000000000000000000000000000000000000000000000000081526004018080602001828103825283818151815260200191508051906020019080838360005b83811015614730578082015181840152602081019050614715565b50505050905090810190601f16801561475d5780820380516001836020036101000a031916815260200191505b509250505060405180910390fd5b9392505050565b828054600181600116156101000203166002900490600052602060002090601f016020900481019282601f106147b357805160ff19168380011785556147e1565b828001600101855582156147e1579182015b828111156147e05782518255916020019190600101906147c5565b5b5090506147ee919061485b565b5090565b60405180606001604052806000815260200160608152602001600081525090565b50805460018160011615610100020316600290046000825580601f106148395750614858565b601f016020900490600052602060002090810190614857919061485b565b5b50565b61487d91905b80821115614879576000816000905550600101614861565b5090565b9056fe456e756d657261626c655365743a20696e646578206f7574206f6620626f756e64734552433732313a207472616e7366657220746f206e6f6e20455243373231526563656976657220696d706c656d656e7465724f776e61626c653a206e6577206f776e657220697320746865207a65726f20616464726573734552433732313a207472616e7366657220746f20746865207a65726f2061646472657373416464726573733a20696e73756666696369656e742062616c616e636520666f722063616c6c4552433732313a206f70657261746f7220717565727920666f72206e6f6e6578697374656e7420746f6b656e4552433732313a20617070726f76652063616c6c6572206973206e6f74206f776e6572206e6f7220617070726f76656420666f7220616c6c4552433732313a2062616c616e636520717565727920666f7220746865207a65726f20616464726573734552433732313a206f776e657220717565727920666f72206e6f6e6578697374656e7420746f6b656e456e756d657261626c654d61703a20696e646578206f7574206f6620626f756e6473536166654d6174683a206d756c7469706c69636174696f6e206f766572666c6f774552433732313a20617070726f76656420717565727920666f72206e6f6e6578697374656e7420746f6b656e4552433732314d657461646174613a2055524920736574206f66206e6f6e6578697374656e7420746f6b656e4552433732313a207472616e73666572206f6620746f6b656e2074686174206973206e6f74206f776e4552433732314d657461646174613a2055524920717565727920666f72206e6f6e6578697374656e7420746f6b656e4552433732313a20617070726f76616c20746f2063757272656e74206f776e65724552433732313a207472616e736665722063616c6c6572206973206e6f74206f776e6572206e6f7220617070726f766564a2646970667358221220735a59dc2d3790d48e359a22b4f33f8b0c53d967341f51e9cc27b5143eec3ddd64736f6c63430006060033746865206275726e526566756e6450657263656e74616765206d757374206265206265747765656e203020616e6420313030a2646970667358221220c9773f24a9e90b3c61207455cf70aa88e94eb8f37da192b59c9ef3eb092c2d0864736f6c63430006060033",
  "immutableReferences": {},
  "source": "// SPDX-License-Identifier: MIT\r\npragma solidity ^0.6.6;\r\n\r\n// TODO: Explore Clone Factory Pattern for gas savings on main net release\r\n//       https://betterprogramming.pub/learn-solidity-the-factory-pattern-75d11c3e7d29\r\n\r\nimport \"./Gashapon.sol\";\r\n\r\ncontract GashaponFactory {\r\n    Gashapon[] public children;\r\n\r\n    event GashaponCreated(address indexed _from, address indexed _child);\r\n    // event ChildCreated(address childAddress, uint data);\r\n\r\n    // TODO: Add field for IPFS path to data files\r\n\r\n    function createChild(\r\n        string calldata _tokenName,\r\n        string calldata _tokenSymbol,\r\n        uint8 _minimumDifficultyBits,\r\n        uint8 _dnaBitLength,\r\n        uint256 _firstPrice,\r\n        uint256 _priceIncrement,\r\n        uint8 _burnRefundPercentage,\r\n        string calldata _cidRoot\r\n    ) external {\r\n        Gashapon child = new Gashapon(\r\n            _tokenName,\r\n            _tokenSymbol,\r\n            _minimumDifficultyBits,\r\n            _dnaBitLength,\r\n            _firstPrice,\r\n            _priceIncrement,\r\n            _burnRefundPercentage,\r\n            _cidRoot\r\n        );\r\n        children.push(child);\r\n        emit GashaponCreated(msg.sender, address(child));\r\n    }\r\n\r\n    // TODO: Check if it's necessary to declare this function (adapted from sample factory)\r\n    //       or if a getter will be auto-generated in it's absence\r\n    function getChildren() external view returns (Gashapon[] memory _children){\r\n        _children = new Gashapon[](children.length);\r\n        uint count;\r\n        for (uint i = 0; i < children.length; i++) {\r\n            _children[count] = children[i];\r\n            count++;\r\n        }\r\n    }\r\n\r\n\r\n}",
  "sourcePath": "C:/Users/morgan/WebstormProjects/six-bit/contracts/GashaponFactory.sol",
  "compiler": {
    "name": "solc",
    "version": "0.6.6+commit.6c089d02.Emscripten.clang"
  },
  "schemaVersion": "3.3.4",
  "updatedAt": "2021-03-23T17:17:39.068Z",
  "networkType": "ethereum",
  "devdoc": {
    "methods": {}
  },
  "userdoc": {
    "methods": {}
  }
}