{
  "contractName": "GashaponFactory",
  "abi": [
    {
      "anonymous": false,
      "inputs": [
        {
          "indexed": true,
          "internalType": "address",
          "name": "_address",
          "type": "address"
        }
      ],
      "name": "GashaponCreated",
      "type": "event"
    },
    {
      "inputs": [
        {
          "internalType": "uint256",
          "name": "",
          "type": "uint256"
        }
      ],
      "name": "children",
      "outputs": [
        {
          "internalType": "contract Gashapon",
          "name": "",
          "type": "address"
        }
      ],
      "stateMutability": "view",
      "type": "function",
      "constant": true
    },
    {
      "inputs": [
        {
          "internalType": "string",
          "name": "_tokenName",
          "type": "string"
        },
        {
          "internalType": "string",
          "name": "_tokenSymbol",
          "type": "string"
        },
        {
          "internalType": "uint8",
          "name": "_minimumDifficultyBits",
          "type": "uint8"
        },
        {
          "internalType": "uint8",
          "name": "_dnaBitLength",
          "type": "uint8"
        },
        {
          "internalType": "uint256",
          "name": "_initialPrice",
          "type": "uint256"
        },
        {
          "internalType": "uint8",
          "name": "_priceIncreasePercentage",
          "type": "uint8"
        }
      ],
      "name": "createChild",
      "outputs": [],
      "stateMutability": "nonpayable",
      "type": "function"
    },
    {
      "inputs": [],
      "name": "getChildren",
      "outputs": [
        {
          "internalType": "contract Gashapon[]",
          "name": "_children",
          "type": "address[]"
        }
      ],
      "stateMutability": "view",
      "type": "function",
      "constant": true
    }
  ],
  "bytecode": "0x608060405234801561001057600080fd5b50614857806100206000396000f3fe608060405234801561001057600080fd5b50600436106100415760003560e01c80634892e8e8146100465780637002ce42146100a5578063bb01a81914610113575b600080fd5b61004e610212565b6040518080602001828103825283818151815260200191508051906020019060200280838360005b83811015610091578082015181840152602081019050610076565b505050509050019250505060405180910390f35b6100d1600480360360208110156100bb57600080fd5b810190808035906020019092919050505061030f565b604051808273ffffffffffffffffffffffffffffffffffffffff1673ffffffffffffffffffffffffffffffffffffffff16815260200191505060405180910390f35b610210600480360360c081101561012957600080fd5b810190808035906020019064010000000081111561014657600080fd5b82018360208201111561015857600080fd5b8035906020019184600183028401116401000000008311171561017a57600080fd5b90919293919293908035906020019064010000000081111561019b57600080fd5b8201836020820111156101ad57600080fd5b803590602001918460018302840111640100000000831117156101cf57600080fd5b9091929391929390803560ff169060200190929190803560ff16906020019092919080359060200190929190803560ff16906020019092919050505061034b565b005b606060008054905067ffffffffffffffff8111801561023057600080fd5b5060405190808252806020026020018201604052801561025f5781602001602082028036833780820191505090505b509050600080600090505b60008054905081101561030a576000818154811061028457fe5b9060005260206000200160009054906101000a900473ffffffffffffffffffffffffffffffffffffffff168383815181106102bb57fe5b602002602001019073ffffffffffffffffffffffffffffffffffffffff16908173ffffffffffffffffffffffffffffffffffffffff16815250508180600101925050808060010191505061026a565b505090565b6000818154811061031c57fe5b906000526020600020016000915054906101000a900473ffffffffffffffffffffffffffffffffffffffff1681565b60008888888888888888604051610361906104c6565b8080602001806020018760ff1660ff1681526020018660ff1660ff1681526020018581526020018460ff1660ff16815260200183810383528b8b82818152602001925080828437600081840152601f19601f8201169050808301925050508381038252898982818152602001925080828437600081840152601f19601f8201169050808301925050509a5050505050505050505050604051809103906000f080158015610412573d6000803e3d6000fd5b5090506000819080600181540180825580915050600190039060005260206000200160009091909190916101000a81548173ffffffffffffffffffffffffffffffffffffffff021916908373ffffffffffffffffffffffffffffffffffffffff1602179055508073ffffffffffffffffffffffffffffffffffffffff167fd2a8932e48d6e8dbcf14a1ca24d42cf48e4acb2f355d7aafefd91e0833c956bc60405160405180910390a2505050505050505050565b61434e806104d48339019056fe60806040523480156200001157600080fd5b506040516200434e3803806200434e833981810160405260c08110156200003757600080fd5b81019080805160405193929190846401000000008211156200005857600080fd5b838201915060208201858111156200006f57600080fd5b82518660018202830111640100000000821117156200008d57600080fd5b8083526020830192505050908051906020019080838360005b83811015620000c3578082015181840152602081019050620000a6565b50505050905090810190601f168015620000f15780820380516001836020036101000a031916815260200191505b50604052602001805160405193929190846401000000008211156200011557600080fd5b838201915060208201858111156200012c57600080fd5b82518660018202830111640100000000821117156200014a57600080fd5b8083526020830192505050908051906020019080838360005b838110156200018057808201518184015260208101905062000163565b50505050905090810190601f168015620001ae5780820380516001836020036101000a031916815260200191505b50604052602001805190602001909291908051906020019092919080519060200190929190805190602001909291905050508585620001fa6301ffc9a760e01b6200038460201b60201c565b81600690805190602001906200021292919062000495565b5080600790805190602001906200022b92919062000495565b50620002446380ac58cd60e01b6200038460201b60201c565b6200025c635b5e139f60e01b6200038460201b60201c565b6200027463780e9d6360e01b6200038460201b60201c565b50506000620002886200048d60201b60201c565b905080600a60006101000a81548173ffffffffffffffffffffffffffffffffffffffff021916908373ffffffffffffffffffffffffffffffffffffffff1602179055508073ffffffffffffffffffffffffffffffffffffffff16600073ffffffffffffffffffffffffffffffffffffffff167f8be0079c531659141344cd1fd0a4f28419497f9722a3daafe3b4186f6b6457e060405160405180910390a35060018460ff166101000360020a03600b8190555082600d60006101000a81548160ff021916908360ff16021790555081600e8190555080600f60006101000a81548160ff021916908360ff16021790555050505050505062000544565b63ffffffff60e01b817bffffffffffffffffffffffffffffffffffffffffffffffffffffffff1916141562000421576040517f08c379a000000000000000000000000000000000000000000000000000000000815260040180806020018281038252601c8152602001807f4552433136353a20696e76616c696420696e746572666163652069640000000081525060200191505060405180910390fd5b6001600080837bffffffffffffffffffffffffffffffffffffffffffffffffffffffff19167bffffffffffffffffffffffffffffffffffffffffffffffffffffffff1916815260200190815260200160002060006101000a81548160ff02191690831515021790555050565b600033905090565b828054600181600116156101000203166002900490600052602060002090601f016020900481019282601f10620004d857805160ff191683800117855562000509565b8280016001018555821562000509579182015b8281111562000508578251825591602001919060010190620004eb565b5b5090506200051891906200051c565b5090565b6200054191905b808211156200053d57600081600090555060010162000523565b5090565b90565b613dfa80620005546000396000f3fe6080604052600436106101e35760003560e01c806370a0823111610102578063ba54b14c11610095578063e985e9c511610064578063e985e9c514610f95578063e9f560291461101e578063ef9089d614611071578063f2fde38b1461109c576101e3565b8063ba54b14c14610da5578063c87b56dd14610dd0578063cc637afe14610e84578063de933e4d14610f64576101e3565b806395d89b41116100d157806395d89b4114610b7b578063a22cb46514610c0b578063a71e2b4914610c68578063b88d4fde14610c93576101e3565b806370a08231146109e6578063715018a614610a4b578063837dd43114610a625780638da5cb5b14610b24576101e3565b80632f745c591161017a5780634f6ccce7116101495780634f6ccce714610861578063588ee29b146108b05780636352211e146108db5780636c0360eb14610956576101e3565b80632f745c59146106015780633bb3a24d1461067057806342842e0e146107245780634f64b2be1461079f576101e3565b8063141677dd116101b6578063141677dd146103c057806318160ddd146103eb57806323b872dd146104165780632825df7b14610491576101e3565b806301ffc9a7146101e857806306fdde031461025a578063081812fc146102ea578063095ea7b314610365575b600080fd5b3480156101f457600080fd5b506102406004803603602081101561020b57600080fd5b8101908080357bffffffffffffffffffffffffffffffffffffffffffffffffffffffff191690602001909291905050506110ed565b604051808215151515815260200191505060405180910390f35b34801561026657600080fd5b5061026f611154565b6040518080602001828103825283818151815260200191508051906020019080838360005b838110156102af578082015181840152602081019050610294565b50505050905090810190601f1680156102dc5780820380516001836020036101000a031916815260200191505b509250505060405180910390f35b3480156102f657600080fd5b506103236004803603602081101561030d57600080fd5b81019080803590602001909291905050506111f6565b604051808273ffffffffffffffffffffffffffffffffffffffff1673ffffffffffffffffffffffffffffffffffffffff16815260200191505060405180910390f35b34801561037157600080fd5b506103be6004803603604081101561038857600080fd5b81019080803573ffffffffffffffffffffffffffffffffffffffff16906020019092919080359060200190929190505050611291565b005b3480156103cc57600080fd5b506103d56113d5565b6040518082815260200191505060405180910390f35b3480156103f757600080fd5b506104006113ed565b6040518082815260200191505060405180910390f35b34801561042257600080fd5b5061048f6004803603606081101561043957600080fd5b81019080803573ffffffffffffffffffffffffffffffffffffffff169060200190929190803573ffffffffffffffffffffffffffffffffffffffff169060200190929190803590602001909291905050506113fe565b005b6105eb600480360360608110156104a757600080fd5b8101908080359060200190929190803590602001906401000000008111156104ce57600080fd5b8201836020820111156104e057600080fd5b8035906020019184600183028401116401000000008311171561050257600080fd5b91908080601f016020809104026020016040519081016040528093929190818152602001838380828437600081840152601f19601f8201169050808301925050505050505091929192908035906020019064010000000081111561056557600080fd5b82018360208201111561057757600080fd5b8035906020019184600183028401116401000000008311171561059957600080fd5b91908080601f016020809104026020016040519081016040528093929190818152602001838380828437600081840152601f19601f820116905080830192505050505050509192919290505050611474565b6040518082815260200191505060405180910390f35b34801561060d57600080fd5b5061065a6004803603604081101561062457600080fd5b81019080803573ffffffffffffffffffffffffffffffffffffffff1690602001909291908035906020019092919050505061180a565b6040518082815260200191505060405180910390f35b34801561067c57600080fd5b506106a96004803603602081101561069357600080fd5b8101908080359060200190929190505050611865565b6040518080602001828103825283818151815260200191508051906020019080838360005b838110156106e95780820151818401526020810190506106ce565b50505050905090810190601f1680156107165780820380516001836020036101000a031916815260200191505b509250505060405180910390f35b34801561073057600080fd5b5061079d6004803603606081101561074757600080fd5b81019080803573ffffffffffffffffffffffffffffffffffffffff169060200190929190803573ffffffffffffffffffffffffffffffffffffffff16906020019092919080359060200190929190505050611877565b005b3480156107ab57600080fd5b506107d8600480360360208110156107c257600080fd5b8101908080359060200190929190505050611897565b6040518084815260200180602001838152602001828103825284818151815260200191508051906020019080838360005b83811015610824578082015181840152602081019050610809565b50505050905090810190601f1680156108515780820380516001836020036101000a031916815260200191505b5094505050505060405180910390f35b34801561086d57600080fd5b5061089a6004803603602081101561088457600080fd5b8101908080359060200190929190505050611966565b6040518082815260200191505060405180910390f35b3480156108bc57600080fd5b506108c5611989565b6040518082815260200191505060405180910390f35b3480156108e757600080fd5b50610914600480360360208110156108fe57600080fd5b810190808035906020019092919050505061198f565b604051808273ffffffffffffffffffffffffffffffffffffffff1673ffffffffffffffffffffffffffffffffffffffff16815260200191505060405180910390f35b34801561096257600080fd5b5061096b6119c6565b6040518080602001828103825283818151815260200191508051906020019080838360005b838110156109ab578082015181840152602081019050610990565b50505050905090810190601f1680156109d85780820380516001836020036101000a031916815260200191505b509250505060405180910390f35b3480156109f257600080fd5b50610a3560048036036020811015610a0957600080fd5b81019080803573ffffffffffffffffffffffffffffffffffffffff169060200190929190505050611a68565b6040518082815260200191505060405180910390f35b348015610a5757600080fd5b50610a60611b3d565b005b348015610a6e57600080fd5b50610a9b60048036036020811015610a8557600080fd5b8101908080359060200190929190505050611cad565b6040518080602001848152602001838152602001828103825285818151815260200191508051906020019080838360005b83811015610ae7578082015181840152602081019050610acc565b50505050905090810190601f168015610b145780820380516001836020036101000a031916815260200191505b5094505050505060405180910390f35b348015610b3057600080fd5b50610b39611db7565b604051808273ffffffffffffffffffffffffffffffffffffffff1673ffffffffffffffffffffffffffffffffffffffff16815260200191505060405180910390f35b348015610b8757600080fd5b50610b90611de1565b6040518080602001828103825283818151815260200191508051906020019080838360005b83811015610bd0578082015181840152602081019050610bb5565b50505050905090810190601f168015610bfd5780820380516001836020036101000a031916815260200191505b509250505060405180910390f35b348015610c1757600080fd5b50610c6660048036036040811015610c2e57600080fd5b81019080803573ffffffffffffffffffffffffffffffffffffffff169060200190929190803515159060200190929190505050611e83565b005b348015610c7457600080fd5b50610c7d61203b565b6040518082815260200191505060405180910390f35b348015610c9f57600080fd5b50610da360048036036080811015610cb657600080fd5b81019080803573ffffffffffffffffffffffffffffffffffffffff169060200190929190803573ffffffffffffffffffffffffffffffffffffffff1690602001909291908035906020019092919080359060200190640100000000811115610d1d57600080fd5b820183602082011115610d2f57600080fd5b80359060200191846001830284011164010000000083111715610d5157600080fd5b91908080601f016020809104026020016040519081016040528093929190818152602001838380828437600081840152601f19601f820116905080830192505050505050509192919290505050612041565b005b348015610db157600080fd5b50610dba6120b9565b6040518082815260200191505060405180910390f35b348015610ddc57600080fd5b50610e0960048036036020811015610df357600080fd5b81019080803590602001909291905050506120bf565b6040518080602001828103825283818151815260200191508051906020019080838360005b83811015610e49578082015181840152602081019050610e2e565b50505050905090810190601f168015610e765780820380516001836020036101000a031916815260200191505b509250505060405180910390f35b348015610e9057600080fd5b50610f4a60048036036020811015610ea757600080fd5b8101908080359060200190640100000000811115610ec457600080fd5b820183602082011115610ed657600080fd5b80359060200191846001830284011164010000000083111715610ef857600080fd5b91908080601f016020809104026020016040519081016040528093929190818152602001838380828437600081840152601f19601f820116905080830192505050505050509192919290505050612390565b604051808215151515815260200191505060405180910390f35b348015610f7057600080fd5b50610f7961241d565b604051808260ff1660ff16815260200191505060405180910390f35b348015610fa157600080fd5b5061100460048036036040811015610fb857600080fd5b81019080803573ffffffffffffffffffffffffffffffffffffffff169060200190929190803573ffffffffffffffffffffffffffffffffffffffff169060200190929190505050612430565b604051808215151515815260200191505060405180910390f35b34801561102a57600080fd5b506110576004803603602081101561104157600080fd5b81019080803590602001909291905050506124c4565b604051808215151515815260200191505060405180910390f35b34801561107d57600080fd5b506110866124fd565b6040518082815260200191505060405180910390f35b3480156110a857600080fd5b506110eb600480360360208110156110bf57600080fd5b81019080803573ffffffffffffffffffffffffffffffffffffffff169060200190929190505050612503565b005b6000806000837bffffffffffffffffffffffffffffffffffffffffffffffffffffffff19167bffffffffffffffffffffffffffffffffffffffffffffffffffffffff1916815260200190815260200160002060009054906101000a900460ff169050919050565b606060068054600181600116156101000203166002900480601f0160208091040260200160405190810160405280929190818152602001828054600181600116156101000203166002900480156111ec5780601f106111c1576101008083540402835291602001916111ec565b820191906000526020600020905b8154815290600101906020018083116111cf57829003601f168201915b5050505050905090565b6000611201826126f8565b611256576040517f08c379a000000000000000000000000000000000000000000000000000000000815260040180806020018281038252602c815260200180613cc3602c913960400191505060405180910390fd5b6004600083815260200190815260200160002060009054906101000a900473ffffffffffffffffffffffffffffffffffffffff169050919050565b600061129c8261198f565b90508073ffffffffffffffffffffffffffffffffffffffff168373ffffffffffffffffffffffffffffffffffffffff161415611323576040517f08c379a0000000000000000000000000000000000000000000000000000000008152600401808060200182810382526021815260200180613d736021913960400191505060405180910390fd5b8073ffffffffffffffffffffffffffffffffffffffff16611342612715565b73ffffffffffffffffffffffffffffffffffffffff16148061137157506113708161136b612715565b612430565b5b6113c6576040517f08c379a0000000000000000000000000000000000000000000000000000000008152600401808060200182810382526038815260200180613c166038913960400191505060405180910390fd5b6113d0838361271d565b505050565b6000601380549050600c54816113e757fe5b04905090565b60006113f960026127d6565b905090565b61140f611409612715565b826127eb565b611464576040517f08c379a0000000000000000000000000000000000000000000000000000000008152600401808060200182810382526031815260200180613d946031913960400191505060405180910390fd5b61146f8383836128df565b505050565b6000600e543410156114ee576040517f08c379a000000000000000000000000000000000000000000000000000000000815260040180806020018281038252600f8152602001807f6e6f7420656e6f7567682070616964000000000000000000000000000000000081525060200191505060405180910390fd5b6064600f60009054906101000a900460ff1660ff1634028161150c57fe5b043401600e8190555061151e83612390565b15611591576040517f08c379a00000000000000000000000000000000000000000000000000000000081526004018080602001828103825260138152602001807f6e616d65206d75737420626520756e697175650000000000000000000000000081525060200191505060405180910390fd5b60003361159c611de1565b86604051602001808473ffffffffffffffffffffffffffffffffffffffff1673ffffffffffffffffffffffffffffffffffffffff16815260200180602001838152602001828103825284818151815260200191508051906020019080838360005b838110156116185780820151818401526020810190506115fd565b50505050905090810190601f1680156116455780820380516001836020036101000a031916815260200191505b50945050505050604051602081830303815290604052805190602001209050806010819055506000600d60009054906101000a900460ff1660ff1660020a8260001c8161168e57fe5b0660001b905060008260001c600b54816116a457fe5b04905080600c6000828254019250508190555060016012876040518082805190602001908083835b602083106116ef57805182526020820191506020810190506020830392506116cc565b6001836020036101000a038019825116818451168082178552505050505050905001915050908152602001604051809103902060006101000a81548160ff02191690831515021790555060016011600084815260200190815260200160002060006101000a81548160ff02191690831515021790555060006013805490509050601360405180606001604052808581526020018981526020018481525090806001815401808255809150506001900390600052602060002090600302016000909190919091506000820151816000015560208201518160010190805190602001906117db929190613a80565b506040820151816002015550506117f23382612b22565b6117fc8187612b40565b809450505050509392505050565b600061185d82600160008673ffffffffffffffffffffffffffffffffffffffff1673ffffffffffffffffffffffffffffffffffffffff168152602001908152602001600020612bca90919063ffffffff16565b905092915050565b6060611870826120bf565b9050919050565b61189283838360405180602001604052806000815250612041565b505050565b601381815481106118a457fe5b9060005260206000209060030201600091509050806000015490806001018054600181600116156101000203166002900480601f0160208091040260200160405190810160405280929190818152602001828054600181600116156101000203166002900480156119565780601f1061192b57610100808354040283529160200191611956565b820191906000526020600020905b81548152906001019060200180831161193957829003601f168201915b5050505050908060020154905083565b60008061197d836002612be490919063ffffffff16565b50905080915050919050565b60105481565b60006119bf82604051806060016040528060298152602001613c78602991396002612c139092919063ffffffff16565b9050919050565b606060098054600181600116156101000203166002900480601f016020809104026020016040519081016040528092919081815260200182805460018160011615610100020316600290048015611a5e5780601f10611a3357610100808354040283529160200191611a5e565b820191906000526020600020905b815481529060010190602001808311611a4157829003601f168201915b5050505050905090565b60008073ffffffffffffffffffffffffffffffffffffffff168273ffffffffffffffffffffffffffffffffffffffff161415611aef576040517f08c379a000000000000000000000000000000000000000000000000000000000815260040180806020018281038252602a815260200180613c4e602a913960400191505060405180910390fd5b611b36600160008473ffffffffffffffffffffffffffffffffffffffff1673ffffffffffffffffffffffffffffffffffffffff168152602001908152602001600020612c32565b9050919050565b611b45612715565b73ffffffffffffffffffffffffffffffffffffffff16611b63611db7565b73ffffffffffffffffffffffffffffffffffffffff1614611bec576040517f08c379a00000000000000000000000000000000000000000000000000000000081526004018080602001828103825260208152602001807f4f776e61626c653a2063616c6c6572206973206e6f7420746865206f776e657281525060200191505060405180910390fd5b600073ffffffffffffffffffffffffffffffffffffffff16600a60009054906101000a900473ffffffffffffffffffffffffffffffffffffffff1673ffffffffffffffffffffffffffffffffffffffff167f8be0079c531659141344cd1fd0a4f28419497f9722a3daafe3b4186f6b6457e060405160405180910390a36000600a60006101000a81548173ffffffffffffffffffffffffffffffffffffffff021916908373ffffffffffffffffffffffffffffffffffffffff160217905550565b606060008060138481548110611cbf57fe5b906000526020600020906003020160010160138581548110611cdd57fe5b90600052602060002090600302016000015460138681548110611cfc57fe5b906000526020600020906003020160020154828054600181600116156101000203166002900480601f016020809104026020016040519081016040528092919081815260200182805460018160011615610100020316600290048015611da35780601f10611d7857610100808354040283529160200191611da3565b820191906000526020600020905b815481529060010190602001808311611d8657829003601f168201915b505050505092509250925092509193909250565b6000600a60009054906101000a900473ffffffffffffffffffffffffffffffffffffffff16905090565b606060078054600181600116156101000203166002900480601f016020809104026020016040519081016040528092919081815260200182805460018160011615610100020316600290048015611e795780601f10611e4e57610100808354040283529160200191611e79565b820191906000526020600020905b815481529060010190602001808311611e5c57829003601f168201915b5050505050905090565b611e8b612715565b73ffffffffffffffffffffffffffffffffffffffff168273ffffffffffffffffffffffffffffffffffffffff161415611f2c576040517f08c379a00000000000000000000000000000000000000000000000000000000081526004018080602001828103825260198152602001807f4552433732313a20617070726f766520746f2063616c6c65720000000000000081525060200191505060405180910390fd5b8060056000611f39612715565b73ffffffffffffffffffffffffffffffffffffffff1673ffffffffffffffffffffffffffffffffffffffff16815260200190815260200160002060008473ffffffffffffffffffffffffffffffffffffffff1673ffffffffffffffffffffffffffffffffffffffff16815260200190815260200160002060006101000a81548160ff0219169083151502179055508173ffffffffffffffffffffffffffffffffffffffff16611fe6612715565b73ffffffffffffffffffffffffffffffffffffffff167f17307eab39ab6107e8899845ad3d59bd9653f200f220920489ca2b5937696c3183604051808215151515815260200191505060405180910390a35050565b600b5481565b61205261204c612715565b836127eb565b6120a7576040517f08c379a0000000000000000000000000000000000000000000000000000000008152600401808060200182810382526031815260200180613d946031913960400191505060405180910390fd5b6120b384848484612c47565b50505050565b600c5481565b60606120ca826126f8565b61211f576040517f08c379a000000000000000000000000000000000000000000000000000000000815260040180806020018281038252602f815260200180613d44602f913960400191505060405180910390fd5b6060600860008481526020019081526020016000208054600181600116156101000203166002900480601f0160208091040260200160405190810160405280929190818152602001828054600181600116156101000203166002900480156121c85780601f1061219d576101008083540402835291602001916121c8565b820191906000526020600020905b8154815290600101906020018083116121ab57829003601f168201915b5050505050905060606121d96119c6565b90506000815114156121ef57819250505061238b565b6000825111156122c05780826040516020018083805190602001908083835b60208310612231578051825260208201915060208101905060208303925061220e565b6001836020036101000a03801982511681845116808217855250505050505090500182805190602001908083835b60208310612282578051825260208201915060208101905060208303925061225f565b6001836020036101000a038019825116818451168082178552505050505050905001925050506040516020818303038152906040529250505061238b565b806122ca85612cb9565b6040516020018083805190602001908083835b6020831061230057805182526020820191506020810190506020830392506122dd565b6001836020036101000a03801982511681845116808217855250505050505090500182805190602001908083835b60208310612351578051825260208201915060208101905060208303925061232e565b6001836020036101000a03801982511681845116808217855250505050505090500192505050604051602081830303815290604052925050505b919050565b60008082511415801561241657506012826040518082805190602001908083835b602083106123d457805182526020820191506020810190506020830392506123b1565b6001836020036101000a038019825116818451168082178552505050505050905001915050908152602001604051809103902060009054906101000a900460ff165b9050919050565b600d60009054906101000a900460ff1681565b6000600560008473ffffffffffffffffffffffffffffffffffffffff1673ffffffffffffffffffffffffffffffffffffffff16815260200190815260200160002060008373ffffffffffffffffffffffffffffffffffffffff1673ffffffffffffffffffffffffffffffffffffffff16815260200190815260200160002060009054906101000a900460ff16905092915050565b6000808260001c141580156124f657506011600083815260200190815260200160002060009054906101000a900460ff165b9050919050565b600e5481565b61250b612715565b73ffffffffffffffffffffffffffffffffffffffff16612529611db7565b73ffffffffffffffffffffffffffffffffffffffff16146125b2576040517f08c379a00000000000000000000000000000000000000000000000000000000081526004018080602001828103825260208152602001807f4f776e61626c653a2063616c6c6572206973206e6f7420746865206f776e657281525060200191505060405180910390fd5b600073ffffffffffffffffffffffffffffffffffffffff168173ffffffffffffffffffffffffffffffffffffffff161415612638576040517f08c379a0000000000000000000000000000000000000000000000000000000008152600401808060200182810382526026815260200180613b7a6026913960400191505060405180910390fd5b8073ffffffffffffffffffffffffffffffffffffffff16600a60009054906101000a900473ffffffffffffffffffffffffffffffffffffffff1673ffffffffffffffffffffffffffffffffffffffff167f8be0079c531659141344cd1fd0a4f28419497f9722a3daafe3b4186f6b6457e060405160405180910390a380600a60006101000a81548173ffffffffffffffffffffffffffffffffffffffff021916908373ffffffffffffffffffffffffffffffffffffffff16021790555050565b600061270e826002612e0090919063ffffffff16565b9050919050565b600033905090565b816004600083815260200190815260200160002060006101000a81548173ffffffffffffffffffffffffffffffffffffffff021916908373ffffffffffffffffffffffffffffffffffffffff160217905550808273ffffffffffffffffffffffffffffffffffffffff166127908361198f565b73ffffffffffffffffffffffffffffffffffffffff167f8c5be1e5ebec7d5bd14f71427d1e84f3dd0314c0f7b2291e5b200ac8c7c3b92560405160405180910390a45050565b60006127e482600001612e1a565b9050919050565b60006127f6826126f8565b61284b576040517f08c379a000000000000000000000000000000000000000000000000000000000815260040180806020018281038252602c815260200180613bea602c913960400191505060405180910390fd5b60006128568361198f565b90508073ffffffffffffffffffffffffffffffffffffffff168473ffffffffffffffffffffffffffffffffffffffff1614806128c557508373ffffffffffffffffffffffffffffffffffffffff166128ad846111f6565b73ffffffffffffffffffffffffffffffffffffffff16145b806128d657506128d58185612430565b5b91505092915050565b8273ffffffffffffffffffffffffffffffffffffffff166128ff8261198f565b73ffffffffffffffffffffffffffffffffffffffff161461296b576040517f08c379a0000000000000000000000000000000000000000000000000000000008152600401808060200182810382526029815260200180613d1b6029913960400191505060405180910390fd5b600073ffffffffffffffffffffffffffffffffffffffff168273ffffffffffffffffffffffffffffffffffffffff1614156129f1576040517f08c379a0000000000000000000000000000000000000000000000000000000008152600401808060200182810382526024815260200180613ba06024913960400191505060405180910390fd5b6129fc838383612e2b565b612a0760008261271d565b612a5881600160008673ffffffffffffffffffffffffffffffffffffffff1673ffffffffffffffffffffffffffffffffffffffff168152602001908152602001600020612e3090919063ffffffff16565b50612aaa81600160008573ffffffffffffffffffffffffffffffffffffffff1673ffffffffffffffffffffffffffffffffffffffff168152602001908152602001600020612e4a90919063ffffffff16565b50612ac181836002612e649092919063ffffffff16565b50808273ffffffffffffffffffffffffffffffffffffffff168473ffffffffffffffffffffffffffffffffffffffff167fddf252ad1be2c89b69c2b068fc378daa952ba7f163c4a11628f55a4df523b3ef60405160405180910390a4505050565b612b3c828260405180602001604052806000815250612e99565b5050565b612b49826126f8565b612b9e576040517f08c379a000000000000000000000000000000000000000000000000000000000815260040180806020018281038252602c815260200180613cef602c913960400191505060405180910390fd5b80600860008481526020019081526020016000209080519060200190612bc5929190613a80565b505050565b6000612bd98360000183612f0a565b60001c905092915050565b600080600080612bf78660000186612f8d565b915091508160001c8160001c8090509350935050509250929050565b6000612c26846000018460001b84613026565b60001c90509392505050565b6000612c408260000161311c565b9050919050565b612c528484846128df565b612c5e8484848461312d565b612cb3576040517f08c379a0000000000000000000000000000000000000000000000000000000008152600401808060200182810382526032815260200180613b486032913960400191505060405180910390fd5b50505050565b60606000821415612d01576040518060400160405280600181526020017f30000000000000000000000000000000000000000000000000000000000000008152509050612dfb565b600082905060005b60008214612d2b578080600101915050600a8281612d2357fe5b049150612d09565b60608167ffffffffffffffff81118015612d4457600080fd5b506040519080825280601f01601f191660200182016040528015612d775781602001600182028036833780820191505090505b50905060006001830390508593505b60008414612df357600a8481612d9857fe5b0660300160f81b82828060019003935081518110612db257fe5b60200101907effffffffffffffffffffffffffffffffffffffffffffffffffffffffffffff1916908160001a905350600a8481612deb57fe5b049350612d86565b819450505050505b919050565b6000612e12836000018360001b613372565b905092915050565b600081600001805490509050919050565b505050565b6000612e42836000018360001b613395565b905092915050565b6000612e5c836000018360001b61347d565b905092915050565b6000612e90846000018460001b8473ffffffffffffffffffffffffffffffffffffffff1660001b6134ed565b90509392505050565b612ea383836135c9565b612eb0600084848461312d565b612f05576040517f08c379a0000000000000000000000000000000000000000000000000000000008152600401808060200182810382526032815260200180613b486032913960400191505060405180910390fd5b505050565b600081836000018054905011612f6b576040517f08c379a0000000000000000000000000000000000000000000000000000000008152600401808060200182810382526022815260200180613b266022913960400191505060405180910390fd5b826000018281548110612f7a57fe5b9060005260206000200154905092915050565b60008082846000018054905011612fef576040517f08c379a0000000000000000000000000000000000000000000000000000000008152600401808060200182810382526022815260200180613ca16022913960400191505060405180910390fd5b600084600001848154811061300057fe5b906000526020600020906002020190508060000154816001015492509250509250929050565b600080846001016000858152602001908152602001600020549050600081141583906130ed576040517f08c379a00000000000000000000000000000000000000000000000000000000081526004018080602001828103825283818151815260200191508051906020019080838360005b838110156130b2578082015181840152602081019050613097565b50505050905090810190601f1680156130df5780820380516001836020036101000a031916815260200191505b509250505060405180910390fd5b5084600001600182038154811061310057fe5b9060005260206000209060020201600101549150509392505050565b600081600001805490509050919050565b600061314e8473ffffffffffffffffffffffffffffffffffffffff166137bd565b61315b576001905061336a565b60606132f163150b7a0260e01b613170612715565b888787604051602401808573ffffffffffffffffffffffffffffffffffffffff1673ffffffffffffffffffffffffffffffffffffffff1681526020018473ffffffffffffffffffffffffffffffffffffffff1673ffffffffffffffffffffffffffffffffffffffff16815260200183815260200180602001828103825283818151815260200191508051906020019080838360005b83811015613220578082015181840152602081019050613205565b50505050905090810190601f16801561324d5780820380516001836020036101000a031916815260200191505b5095505050505050604051602081830303815290604052907bffffffffffffffffffffffffffffffffffffffffffffffffffffffff19166020820180517bffffffffffffffffffffffffffffffffffffffffffffffffffffffff8381831617835250505050604051806060016040528060328152602001613b48603291398773ffffffffffffffffffffffffffffffffffffffff166137d09092919063ffffffff16565b9050600081806020019051602081101561330a57600080fd5b8101908080519060200190929190505050905063150b7a0260e01b7bffffffffffffffffffffffffffffffffffffffffffffffffffffffff1916817bffffffffffffffffffffffffffffffffffffffffffffffffffffffff191614925050505b949350505050565b600080836001016000848152602001908152602001600020541415905092915050565b6000808360010160008481526020019081526020016000205490506000811461347157600060018203905060006001866000018054905003905060008660000182815481106133e057fe5b90600052602060002001549050808760000184815481106133fd57fe5b906000526020600020018190555060018301876001016000838152602001908152602001600020819055508660000180548061343557fe5b60019003818190600052602060002001600090559055866001016000878152602001908152602001600020600090556001945050505050613477565b60009150505b92915050565b600061348983836137e8565b6134e25782600001829080600181540180825580915050600190039060005260206000200160009091909190915055826000018054905083600101600084815260200190815260200160002081905550600190506134e7565b600090505b92915050565b6000808460010160008581526020019081526020016000205490506000811415613594578460000160405180604001604052808681526020018581525090806001815401808255809150506001900390600052602060002090600202016000909190919091506000820151816000015560208201518160010155505084600001805490508560010160008681526020019081526020016000208190555060019150506135c2565b828560000160018303815481106135a757fe5b90600052602060002090600202016001018190555060009150505b9392505050565b600073ffffffffffffffffffffffffffffffffffffffff168273ffffffffffffffffffffffffffffffffffffffff16141561366c576040517f08c379a00000000000000000000000000000000000000000000000000000000081526004018080602001828103825260208152602001807f4552433732313a206d696e7420746f20746865207a65726f206164647265737381525060200191505060405180910390fd5b613675816126f8565b156136e8576040517f08c379a000000000000000000000000000000000000000000000000000000000815260040180806020018281038252601c8152602001807f4552433732313a20746f6b656e20616c7265616479206d696e7465640000000081525060200191505060405180910390fd5b6136f460008383612e2b565b61374581600160008573ffffffffffffffffffffffffffffffffffffffff1673ffffffffffffffffffffffffffffffffffffffff168152602001908152602001600020612e4a90919063ffffffff16565b5061375c81836002612e649092919063ffffffff16565b50808273ffffffffffffffffffffffffffffffffffffffff16600073ffffffffffffffffffffffffffffffffffffffff167fddf252ad1be2c89b69c2b068fc378daa952ba7f163c4a11628f55a4df523b3ef60405160405180910390a45050565b600080823b905060008111915050919050565b60606137df848460008561380b565b90509392505050565b600080836001016000848152602001908152602001600020541415905092915050565b606082471015613866576040517f08c379a0000000000000000000000000000000000000000000000000000000008152600401808060200182810382526026815260200180613bc46026913960400191505060405180910390fd5b61386f856137bd565b6138e1576040517f08c379a000000000000000000000000000000000000000000000000000000000815260040180806020018281038252601d8152602001807f416464726573733a2063616c6c20746f206e6f6e2d636f6e747261637400000081525060200191505060405180910390fd5b600060608673ffffffffffffffffffffffffffffffffffffffff1685876040518082805190602001908083835b60208310613931578051825260208201915060208101905060208303925061390e565b6001836020036101000a03801982511681845116808217855250505050505090500191505060006040518083038185875af1925050503d8060008114613993576040519150601f19603f3d011682016040523d82523d6000602084013e613998565b606091505b50915091506139a88282866139b4565b92505050949350505050565b606083156139c457829050613a79565b6000835111156139d75782518084602001fd5b816040517f08c379a00000000000000000000000000000000000000000000000000000000081526004018080602001828103825283818151815260200191508051906020019080838360005b83811015613a3e578082015181840152602081019050613a23565b50505050905090810190601f168015613a6b5780820380516001836020036101000a031916815260200191505b509250505060405180910390fd5b9392505050565b828054600181600116156101000203166002900490600052602060002090601f016020900481019282601f10613ac157805160ff1916838001178555613aef565b82800160010185558215613aef579182015b82811115613aee578251825591602001919060010190613ad3565b5b509050613afc9190613b00565b5090565b613b2291905b80821115613b1e576000816000905550600101613b06565b5090565b9056fe456e756d657261626c655365743a20696e646578206f7574206f6620626f756e64734552433732313a207472616e7366657220746f206e6f6e20455243373231526563656976657220696d706c656d656e7465724f776e61626c653a206e6577206f776e657220697320746865207a65726f20616464726573734552433732313a207472616e7366657220746f20746865207a65726f2061646472657373416464726573733a20696e73756666696369656e742062616c616e636520666f722063616c6c4552433732313a206f70657261746f7220717565727920666f72206e6f6e6578697374656e7420746f6b656e4552433732313a20617070726f76652063616c6c6572206973206e6f74206f776e6572206e6f7220617070726f76656420666f7220616c6c4552433732313a2062616c616e636520717565727920666f7220746865207a65726f20616464726573734552433732313a206f776e657220717565727920666f72206e6f6e6578697374656e7420746f6b656e456e756d657261626c654d61703a20696e646578206f7574206f6620626f756e64734552433732313a20617070726f76656420717565727920666f72206e6f6e6578697374656e7420746f6b656e4552433732314d657461646174613a2055524920736574206f66206e6f6e6578697374656e7420746f6b656e4552433732313a207472616e73666572206f6620746f6b656e2074686174206973206e6f74206f776e4552433732314d657461646174613a2055524920717565727920666f72206e6f6e6578697374656e7420746f6b656e4552433732313a20617070726f76616c20746f2063757272656e74206f776e65724552433732313a207472616e736665722063616c6c6572206973206e6f74206f776e6572206e6f7220617070726f766564a26469706673582212209bda5b4f4ce1657cbd5e085b5a55e6da59c287226310174366f6e8df5f7ffb5864736f6c63430006060033a26469706673582212204186f54f781d580c813579e7809c8bf37006e3b083ac4afe4e9ca8f6073f46db64736f6c63430006060033",
  "immutableReferences": {},
  "source": "// SPDX-License-Identifier: MIT\r\npragma solidity ^0.6.6;\r\n\r\n// TODO: Explore Clone Factory Pattern for gas savings on main net release\r\n//       https://betterprogramming.pub/learn-solidity-the-factory-pattern-75d11c3e7d29\r\n\r\nimport \"./Gashapon.sol\";\r\n\r\ncontract GashaponFactory {\r\n    Gashapon[] public children;\r\n\r\n    event GashaponCreated(address indexed _address);\r\n    // event ChildCreated(address childAddress, uint data);\r\n\r\n    function createChild(\r\n//        string memory _tokenName,\r\n//        string memory _tokenSymbol,\r\n        string calldata _tokenName,\r\n        string calldata _tokenSymbol,\r\n        uint8 _minimumDifficultyBits,\r\n        uint8 _dnaBitLength,\r\n        uint256 _initialPrice,\r\n        uint8 _priceIncreasePercentage\r\n    ) external{\r\n        Gashapon child = new Gashapon(\r\n            _tokenName,\r\n            _tokenSymbol,\r\n            _minimumDifficultyBits,\r\n            _dnaBitLength,\r\n            _initialPrice,\r\n            _priceIncreasePercentage\r\n        );\r\n        children.push(child);\r\n        emit GashaponCreated(address(child));\r\n    }\r\n\r\n    // TODO: Check if it's necessary to declare this function (adapted from sample factory)\r\n    //       or if a getter will be auto-generated in it's absence\r\n    function getChildren() external view returns(Gashapon[] memory _children){\r\n        _children = new Gashapon[](children.length);\r\n        uint count;\r\n        for(uint i=0;i<children.length; i++){\r\n            _children[count] = children[i];\r\n            count++;\r\n        }\r\n    }\r\n\r\n\r\n}",
  "sourcePath": "C:/Users/morgan/WebstormProjects/six-bit/contracts/GashaponFactory.sol",
  "compiler": {
    "name": "solc",
    "version": "0.6.6+commit.6c089d02.Emscripten.clang"
  },
  "schemaVersion": "3.3.4",
  "updatedAt": "2021-03-21T09:21:10.480Z",
  "networkType": "ethereum",
  "devdoc": {
    "methods": {}
  },
  "userdoc": {
    "methods": {}
  }
}